:020000040800F2
:10000000A8150020AD180008150400081704000802
:100010001B0400081F04000823040008000000005F
:10002000000000000000000000000000270400089D
:1000300029040008000000002B0400082D0400081B
:10004000C7180008C7180008C7180008C718000814
:10005000C7180008C7180008C7180008C718000804
:10006000C7180008C7180008C7180008C7180008F4
:10007000C7180008C7180008C7180008C7180008E4
:10008000ED0E00084F0F0008C7180008C718000839
:10009000C7180008C7180008C7180008C7180008C4
:1000A000C7180008C7180008C7180008C7180008B4
:1000B00049070008C718000811420008C7180008BF
:1000C000C7180008C7180008C7180008C718000894
:1000D000C7180008E74000082F040008C7180008E8
:1000E000C7180008C7180008C718000800F002F871
:1000F00000F05EF80AA090E8000C82448344AAF164
:100100000107DA4501D100F053F8AFF2090EBAE861
:100110000F0013F0010F18BFFB1A43F0010318473B
:10012000BC4B0000DC4B000010F8013B0A4413F00C
:10013000030408BF10F8014B1D1108BF10F8015B44
:10014000641E05D010F8016B641E01F8016BF9D133
:10015000002D15D010F8014B03F00C030C2BA1EB74
:1001600004040ABF10F8013BA4EB8314A4EB03249E
:1001700005F1010314F8016B5B1E01F8016BF9D561
:10018000914238BF10F8013BD1D3704700230024BF
:1001900000250026103A28BF78C1FBD8520728BF97
:1001A00030C148BF0B6070471FB51FBD10B510BDF3
:1001B00004F022F91146FFF7F7FF00F009F804F008
:1001C00040F903B4FFF7F2FF03BC04F007F90000A5
:1001D0001CB5022001900120009001F0FDFA01F011
:1001E0002FFA01F01EF831E001F01BF84FF47A709D
:1001F00001F02FFB02220021102001F026F9052238
:100200000021302001F021F90A220021502001F0C4
:100210001CF906220021602001F017F90022114686
:10022000104601F0DEF801220221002001F0D9F889
:1002300002220421002001F0D4F80322062100202C
:1002400001F0CFF84FF47A7001F003FBCCE730B542
:10025000034600200DB2002D19DB8D18082D16DC89
:10026000664D2D884D1B2CB20EE0654D35F81450AF
:100270002D1203F8015B624D15F8145003F8015B71
:10028000651C2CB2551EAAB2002AEEDC00E001204B
:1002900030BDF0B504460D4600202EB2002E34DBF2
:1002A000AE18092E31DC574E3688AE1B31B213B171
:1002B000012B29D112E00EE0534E36F811603612B0
:1002C00004F8016B504E16F8116004F8016B4E1CD7
:1002D00031B2561EB2B2002AEEDC15E011E014F87D
:1002E000017B3E02484F27F8116014F8016B37F884
:1002F00011703E43444F27F811604E1C31B2561E18
:10030000B2B2002AEBDC00BF00E00120F0BD2DE915
:10031000F04705460E46904699464FF0000A0FFA00
:1003200088F430B2002836DB06EB0800102832DCF7
:10033000304607B2B9F1000F03D0B9F1010F29D14E
:1003400015E011E0082C01DD082000E02046C2B2D3
:10035000B9B22E4803F0DCFD05F8010BA4F108004A
:1003600004B207F1080007B2002CEBDC12E00EE04B
:1003700015F8013B082C01DD082000E02046C2B240
:10038000B9B2224803F090FDA4F1080004B2002C99
:10039000EEDC00BF01E04FF0010A5046BDE8F087F7
:1003A0002DE9F04705460C4616464FF0000937B2D6
:1003B00020B200281CDBA019102819DC20461FFAE7
:1003C00080F812E0082F01DD082000E03846C2B2B4
:1003D00041460F4803F09CFD05F8010BA7F108000A
:1003E00007B208F108001FFA80F8002FEADC01E0EC
:1003F0004FF001094846BDE8F087000010000020DA
:100400000000002024000020120000202600002010
:1004100028000020704700BFFEE700BFFEE700BFD6
:10042000FEE700BFFEE7704770477047704710B5A2
:1004300040F225511B4802F0ABFEB0B1194802F062
:1004400027FEC1B218480478601C174A107017487C
:1004500001551046007816490978884205D10022D6
:1004600040F225510F4802F0AEFD40F227710D48D1
:1004700002F08EFEA8B10F480478601C0D4A10707F
:100480000D48015D074802F0FFFD0A4800780B495E
:100490000978884205D1002240F22771014802F014
:1004A00092FD10BD0044004041000020A80E002035
:1004B0004300002040000020680E00204200002081
:1004C0000CB50020019000906C48006840F480302A
:1004D0006A49086000BF6948006800F40030009075
:1004E0000198401C0190009818B90198B0F5A06FD0
:1004F000F1D16248006800F4003010B10120009092
:1005000001E0002000900098012843D15C48006879
:1005100040F010005A4908600846006820F00300C7
:1005200008600846006840F00200086053484068D0
:10053000524948600846406848600846406840F4B0
:10054000806048600846406820F47C104860084697
:10055000406840F4E81048600846006840F0807049
:10056000086000BF4548006800F000700028F9D01E
:100570004248406820F0030040494860084640680F
:1005800040F00200486000BF3C48406800F00C00AA
:100590000828F9D10CBD10B5FFF792FF10BD10B5BA
:1005A0003648006840F00100344908600846406859
:1005B00034490840314948600846006832490840DB
:1005C0002E4908600846006820F48020086008462C
:1005D000406820F4FE0048604FF41F008860FFF779
:1005E000DAFF4FF000602949086010BD10B5002106
:1005F00000200022214B5B6803F00C0121B104298B
:1006000006D0082928D107E0214B224C236027E09F
:10061000214B204C236023E0184B5B6803F47010DF
:10062000164B5B6803F48032022303EB904022B93F
:100630001A4B4343174C23600DE0104B5B6803F4E7
:10064000003323B1164B4343124C236003E0124B9B
:100650004343104C236003E00D4B0E4C236000BF5E
:1006600000BF064B5B68C3F303130E4CE15C094B00
:100670001B68CB40074C236010BD000000100240F7
:10068000002002400000FFF8FFFFF6FE08ED00E04A
:1006900000127A002C000020001BB70000093D006A
:1006A000808D5B003000002008B50121042001F09E
:1006B00039FC0120ADF8000003208DF80200102065
:1006C0008DF803006946084801F070F908BD10B5BF
:1006D0000121054801F019FA10BD10B501210248A9
:1006E00001F011FA10BD0000000801401FB5012102
:1006F000084601F024FC1C208DF80C0000208DF829
:100700000D0001208DF80E008DF80F0003A802F0F7
:1007100088FD4FF47A70ADF804004720ADF8000072
:100720000020ADF80600ADF8020069464FF08040A9
:1007300001F034FD01221146900702F0A6F80121D4
:10074000880702F087F81FBD10B50121880702F065
:100750004AFBE8B10121880702F056FB0D4800680A
:10076000401C0C490860084600684FF47A71B0FBE1
:10077000F1F020B1FFF7ABFF002006490860054803
:1007800000684FF4FA71B0FBF1F008B1FFF7A5FF74
:1007900010BD00004800002010B500F001FC10BDA5
:1007A0001FB500F044FC0020ADF804004BF6FF70CC
:1007B000ADF80600A020ADF808004FF48060ADF859
:1007C0000A000001ADF80C00FE4800900121FE482F
:1007D00002F051FF6946FC4802F0CFFE0121FA48C1
:1007E00002F055FFA020F94908801FBD00BFFEE7B9
:1007F00062B6704772B6704770B506460D4614462D
:10080000F34804604FF42040F249086007E0F149E2
:100810000868411EEF4A116008B9FFF7E7FF4FF47F
:100820000031E94803F04EF80028F0D10121E648F4
:1008300002F045FF4FF48050E649086007E0E549C3
:100840000868411EE34A116008B9FFF7CFFFE2498B
:10085000DD4803F015F80028F1D0DC480088C1B26B
:100860000022D94802F081FF4FF48050D949086036
:1008700007E0D8490868411ED64A116008B9FFF759
:10088000B5FFD649D04802F0FBFF0028F1D0290A75
:10089000CD4802F064FF4FF48050CE49086007E075
:1008A000CC490868411ECB4A116008B9FFF79EFF8A
:1008B000CA49891CC44802F0E3FF0028F0D0E9B21D
:1008C000C14802F04CFF4FF48050C249086007E075
:1008D000C0490868411EBF4A116008B9FFF786FF8A
:1008E000BF49B94802F0EEFF0028F1D00121B64817
:1008F00002F0E5FE4FF48050B649086007E0B549C4
:100900000868411EB34A116008B9FFF76FFFB2498A
:10091000AD4802F0B5FF0028F1D0AC480088C1B264
:100920000122A94802F021FF2088022855DA4FF45D
:100930008050A849086007E0A6490868411EA54AFA
:10094000116008B9FFF752FFA549891E9E4802F0C1
:10095000B9FF0028F0D000219B4802F0C8FEFFF745
:1009600049FF9948183000880121974802F0B3FEEA
:10097000FFF73EFF4FF480509649086007E0954925
:100980000868411E934A116008B9FFF72FFF944988
:100990003C318D4802F096FF0028F0D08A4802F0E2
:1009A000E0FE30702088401E20804FF4805089493E
:1009B000086007E087490868411E864A116008B947
:1009C000FFF714FF8048008800F400700028F1D180
:1009D00001217D4802F08BFE20E04FF480507D49DC
:1009E000086007E07B490868411E7A4A116008B92F
:1009F000FFF7FCFE7849491C734802F041FF0028CC
:100A0000F0D021880122304600F07EFB01216E48A3
:100A100002F049FE0121734802F039FD002070BD4B
:100A200070B506460C4615466F4805604FF42040E9
:100A30006849086007E067490868411E654A116017
:100A400008B9FFF7D3FE4FF400315F4802F03AFFD8
:100A50000028F0D101215C4802F031FE4FF48050B3
:100A60005C49086007E05B490868411E594A11600B
:100A700008B9FFF7BBFE5849534802F001FF0028B0
:100A8000F1D04FF480505349086050480088C1B2FB
:100A900000224D4802F069FE4FF480504D49086035
:100AA00007E04C490868411E4A4A116008B9FFF73F
:100AB0009DFE4A49444802F0E3FE0028F1D0210A95
:100AC000414802F04CFE4FF480504249086007E074
:100AD00040490868411E3F4A116008B9FFF786FE89
:100AE0003E49891C384802F0CBFE0028F0D0E1B224
:100AF000354802F034FE4FF480503649086007E074
:100B000034490868411E334A116008B9FFF76EFE88
:100B10003249891C2C4802F0B3FE0028F0D0297815
:100B20000022304600F0F0FA01212E48143802F07D
:100B3000AEFC002070BD1CB50020019000904FF469
:100B400020402449086007E022490868411E214AE4
:100B5000116008B9FFF74AFE4FF400311A4802F05D
:100B6000B1FE0028F0D164E00121174802F0A7FD92
:100B70004FF480501749086007E016490868411E85
:100B8000144A116008B9FFF731FE13490E4802F00C
:100B900077FE0028F1D00D480088C1B200220A4833
:100BA00002F0E3FD4FF420400A49086000BF064808
:100BB00014300088019007490868411E054A1160F9
:100BC000B0B913E0E0930400005400404C00002052
:100BD00054000020500000200100030082000700A4
:100BE000040000108000024058000020FFF7FEFDC6
:100BF000BDF8040040F2024108400028D7D0BDF8FB
:100C0000040000F0020040B1DD4800880121DC480A
:100C1000183802F060FD00201CBDDA49D8481838A9
:100C200002F06DFE0098411C0091962801D1FFF75B
:100C3000DDFD99E72DE9F04780460E4614464FF05A
:100C4000000900270025AA463046F11706EB51712E
:100C5000C910A6EBC1011FFA81FACAF10800C5B29A
:100C60002046E11704EB5171C1F3C709E11704EB0A
:100C70005171C910A4EBC101CFB2BAF1000F65D117
:100C8000B9F1000F1BD1C0480770024631464046FB
:100C9000FFF7C6FE4FF42040BC49086008E0BB499E
:100CA0000868411EB94A116008B9FFF79FFD00BFEF
:100CB000B54800780028F2DCFFF73DFF14E120E0A2
:100CC0000820B14908700A4631464046FFF7A8FEA1
:100CD0004FF42040AD49086008E0AC490868411E67
:100CE000AA4A116008B9FFF781FD00BFA648007845
:100CF0000028F2DCFFF71FFF06F1080086B208F1BA
:100D000008085FEA0900A9F1010101F0FF09D7D144
:100D1000002FD3D09C480770024631464046FFF76B
:100D20007FFE4FF420409949086008E09749086821
:100D3000411E964A116008B9FFF758FD00BF92485E
:100D400000780028F2DCFFF7F6FECDE0B9F1000FE5
:100D500057D1AC4239DD8C480570024631464046D9
:100D6000FFF75EFE4FF420408849086008E087499D
:100D70000868411E854A116008B9FFF737FD00BFBA
:100D8000814800780028F2DCFFF7D5FE601B7E4921
:100D90000870721991B208EB05007B4AFFF740FE1C
:100DA0004FF420407949086008E078490868411EFE
:100DB000764A116008B9FFF719FD00BF7248007844
:100DC0000028F2DCFFF7B7FE8EE06F48077002469E
:100DD00031464046FFF724FE4FF420406B4908603F
:100DE00008E06A490868411E684A116008B9FFF7BF
:100DF000FDFC00BF644800780028F2DCFFF79BFE92
:100E000072E0601B84B22046E11704EB5171C1F31C
:100E1000C709E11704EB5171C910A4EBC101CFB2AE
:100E2000EDB159480570024631464046FFF7F8FDDE
:100E30004FF420405549086008E054490868411EB5
:100E4000524A116008B9FFF7D1FC00BF4E48007844
:100E50000028F2DCFFF76FFE701986B2A84420E08C
:100E60000820494908700A4631464046FFF7D8FD38
:100E70004FF420404549086008E044490868411E95
:100E8000424A116008B9FFF7B1FC00BF3E48007844
:100E90000028F2DCFFF74FFE06F1080086B208F1E9
:100EA00008085FEA0900A9F1010101F0FF09D7D1A3
:100EB000D7B135480770024631464046FFF7B0FDCE
:100EC0004FF420403149086008E030490868411E6D
:100ED0002E4A116008B9FFF789FC00BF2A48007844
:100EE0000028F2DCFFF727FEBDE8F08710B54FF4CD
:100EF000001002F0E7FA48B30021254802F0C7FAD3
:100F00004FF4801002F0F2FA4FF420401F490860BD
:100F100007E01E490868411E1C4A116008B9FFF726
:100F200065FC1C491648183802F0CCFC0028F0D0AB
:100F300001211348183802F0CEFB1148001F008829
:100F40000F480088002014490968087010BD10B5CA
:100F50004FF0007002F0B6FA88B101210848183845
:100F600002F0B9FB00210A48143002F090FA4FF069
:100F7000807002F0BBFA002008490968088010BDA3
:100F800018540040000400105C00002050000020B5
:100F90006C000240040000105800002054000020A3
:100FA0001CB50021664802F066FB654802F0CCFAE9
:100FB00000214FF4001000F0C2FF4020ADF8040003
:100FC00004208DF8070001A95E4800F0EFFC8020A6
:100FD000ADF8040001A95B4800F0E8FC10208DF892
:100FE000000000208DF801008DF802008DF803004C
:100FF000684602F016F911208DF8000000208DF8E7
:1010000001008DF80200684602F00BF900214E48FD
:1010100002F03DFA00214C48143002F038FA4A48F8
:1010200002F068F94848143002F064F91CBD1CB5A0
:101030000121082000F076FF0121480500F07FFF24
:101040004020ADF8040003208DF806001C208DF828
:10105000070001A93B4800F0A9FC8020ADF804007E
:1010600001A9384800F0A2FC10208DF800000020F3
:101070008DF801008DF8020001208DF8030068460C
:1010800002F0CFF811208DF8000000208DF801004B
:101090008DF80200684602F0C4F80121084600F00D
:1010A00034FF294802F026F9254810302749086006
:1010B00000204860102088604FF6FF70C860002054
:1010C00008618020486100208861C86108624FF48F
:1010D00040504862002088621B4802F0ADF91A486F
:1010E000143002F007F919491748143002F0A4F936
:1010F00001220221144802F0D6F9012202211248ED
:10110000143002F0D0F91CBD70B504460D461646E9
:1011100056B90E48446010200C4988600846C560E6
:10112000094802F089F90AE00848446000200749AC
:1011300088600846C5600448143002F07DF970BD2F
:1011400000540040000C01406C000240FC0E0020E6
:1011500070B504460E4626B11021F84800F0D3FCC5
:1011600003E01021F54800F0D0FC0421F34800F022
:10117000CCFC002517E02021F04800F0C6FC04F06C
:10118000800020B18021ED4800F0BDFC03E080210B
:10119000EA4800F0BAFC2021E84800F0B4FC600600
:1011A000040E681CC5B2082DE5DB0421E34800F0FD
:1011B000AAFC1021E14800F0A6FC70BD70B5044601
:1011C0000D4605F1B001C8B20021FFF7C1FF1021A3
:1011D00041EA14100021FFF7BBFF04F00F0141F0BA
:1011E00001000021FFF7B4FF70BD10B500218D2074
:1011F000FFF7AEFF00211420FFF7AAFF0021AF2068
:10120000FFF7A6FF10BD10B500218D20FFF7A0FF4E
:1012100000211020FFF79CFF0021AE20FFF798FF70
:1012200010BD70B5002419E004F1B001C8B200216E
:10123000FFF78EFF00210846FFF78AFF00211020EC
:10124000FFF786FF002505E001210020FFF780FF62
:10125000681CC5B2802DF7DB601CC4B2082CE3DB30
:1012600070BD2DE9F04106460C4617464FF00008C8
:101270000025A7F1200000F0FF087F2E02DD0026E8
:10128000A01CC4B2601CC1B23046FFF797FF002516
:101290000AE008EB4801AA4A02EB4101485D01213E
:1012A000FFF756FF681CC5B2062DF2DBBDE8F081E2
:1012B00010B50246012000E050430B00A1F10104EB
:1012C000E1B2F9D110BD2DE9FF5F074691461D46F9
:1012D0000E9E4FF0000A002433E0281B401EC1B2CE
:1012E0000A20FFF7E5FFB9FBF0F00A21B0FBF1F2AD
:1012F00001FB1208BAF1000F13D1681EA04210DDE5
:10130000B8F1000F0BD1B34606EBDB71491001FBBE
:101310000471C8B220220199FFF7A3FF0FE04FF03C
:10132000010AB34606EBDB71491001FB0471C8B238
:1013300008F13001CAB20199FFF793FF00BF601CAA
:10134000C4B2AC42C9DBBDE8FF9F2DE9F0410446C1
:101350000F46154600260EE0AA5D39462046FFF7E7
:1013600080FF04F10800C4B2782C02DD0024B81C10
:10137000C7B2701CC6B2A85D0028EDD1BDE8F081EF
:101380002DE9F04180460E4615460027314640467D
:10139000FFF714FF00240AE06A4A02EB8511085D9A
:1013A0000121FFF7D5FE781CC7B2601CC4B2102C17
:1013B000F2DB701CC1B24046FFF700FF00240CE0D6
:1013C0006900491C5F4A02EB4111085D0121FFF7EA
:1013D000BFFE781CC7B2601CC4B2102CF0DBBDE8A5
:1013E000F0812DE9F04180460E4615460027314632
:1013F0004046FFF7E3FE00240CE06900C1EB011159
:10140000514A1144085D0121FFF7A2FE781CC7B2C2
:10141000601CC4B20F2CF0DB701CC1B24046FFF759
:10142000CDFE00240DE06900491CC1EB0111464AC4
:101430001144085D0121FFF78BFE781CC7B2601CC8
:10144000C4B20F2CEFDBBDE8F0812DE9F0418046FE
:101450000E461546002731464046FFF7AFFE0024F2
:101460000AE03A4A02EB0521085D0121FFF770FE10
:10147000781CC7B2601CC4B2202CF2DB701CC1B255
:101480004046FFF79BFE00240CE0E900491C2F4A70
:1014900002EB4111085D0121FFF75AFE781CC7B22B
:1014A000601CC4B2202CF0DBB01CC1B24046FFF778
:1014B00085FE00240CE0E900891C244A02EB41115E
:1014C000085D0121FFF744FE781CC7B2601CC4B25E
:1014D000202CF0DBF01CC1B24046FFF76FFE002469
:1014E0000CE0E900C91C194A02EB4111085D012119
:1014F000FFF72EFE781CC7B2601CC4B2202CF0DBB4
:10150000301DC1B24046FFF759FE00240CE0E9004F
:10151000091D0E4A02EB4111085D0121FFF718FE7B
:10152000781CC7B2601CC4B2202CF0DB701DC1B2A5
:101530004046FFF743FE002417E00000000801408A
:10154000C24400085D0000201D0D00201D02002087
:10155000E900491D9C4A02EB4111085D0121FFF79A
:10156000F7FD781CC7B2601CC4B2202CF0DBB01DA4
:10157000C1B24046FFF722FE00240CE0E900891DBD
:10158000914A02EB4111085D0121FFF7E1FD781C52
:10159000C7B2601CC4B2202CF0DBF01DC1B24046C3
:1015A000FFF70CFE00240CE0E900C91D864A02EB9F
:1015B0004111085D0121FFF7CBFD781CC7B2601C0B
:1015C000C4B2202CF0DBBDE8F0812DE9F05F0646C7
:1015D0000F4690461C46DDF828A04FF0000BE1179F
:1015E00004EB5171C910A4EBC10131B92046E117D8
:1015F00004EB5171C1F3C70506E02046E11704EB87
:101600005171C910491CCDB23D4615E029463046FE
:10161000FFF7D4FDB1460BE059460BF1010B1AF868
:1016200001000121FFF794FD09F1010000F0FF091D
:10163000C145F1DB681CC5B2A542E7DBBDE8F09F00
:1016400008B501210C2000F06DFCBC20ADF80000B5
:1016500010208DF8030003208DF8020069465B48D6
:1016600000F0A4F9BC21594800F04DFA0320ADF870
:1016700000006946564800F099F90321544800F0EB
:1016800042FA4FF40040ADF800006946514800F0BE
:101690008DF94FF400414F4800F035FA08214B48CE
:1016A00000F031FA642000F0D4F80821474800F037
:1016B0002CFA642000F0CDF80821444800F023FA09
:1016C0000021FD20FFF744FD00211220FFF740FD1F
:1016D0000021AE20FFF73CFD0021D520FFF738FDAB
:1016E0000021A020FFF734FD0021A820FFF730FDE6
:1016F00000213F20FFF72CFD0021D320FFF728FD1C
:1017000000210846FFF724FD00214020FFF720FDBF
:101710000021A120FFF71CFD0021C820FFF718FDC4
:101720000021DA20FFF714FD00210220FFF710FD51
:1017300000210846FFF70CFD0021D520FFF708FD2A
:1017400000218020FFF704FD0021D920FFF700FDD4
:101750000021F120FFF7FCFC0021DA20FFF7F8FC64
:1017600000211220FFF7F4FC00218120FFF7F0FC9C
:1017700000217F20FFF7ECFC0021D920FFF7E8FCD7
:1017800000212520FFF7E4FC0021DB20FFF7E0FC2F
:1017900000213420FFF7DCFC0021A420FFF7D8FC57
:1017A0000021A620FFF7D4FC0021AF20FFF7D0FCDA
:1017B0000021AF20FFF7CCFCFFF733FD00210846E6
:1017C000FFF7FCFC08BD00001D02002000080140DE
:1017D000001001400020014010B56FF0040001F03E
:1017E0006AFD2E4800682E49B0FBF1F02D490870C3
:1017F0000846007800EB4001C1EBC0104FF6FF71C6
:1018000001EAC0002849088010BD0146254A127827
:101810004A434FF0E0235A6100229A611A46126946
:1018200042F001021A6100BF4FF0E022106900F09F
:1018300001021AB100F48032002AF5D04FF0E02204
:10184000126922F001024FF0E0231A6100229A612E
:1018500070470146144A12884A434FF0E0235A6108
:1018600000229A611A46126942F001021A6100BF11
:101870004FF0E022106900F001021AB100F480324A
:10188000002AF5D04FF0E022126922F001024FF059
:10189000E0231A6100229A61704700002C000020AA
:1018A00000127A00960D0020980D0020094880470C
:1018B00009480047FEE7FEE7FEE7FEE7FEE7FEE732
:1018C000FEE7FEE7FEE7FEE704480549054A064B4A
:1018D000704700009F050008ED000008A80F0020D9
:1018E000A8150020A8110020A811002010B504465A
:1018F000CC48844208D10121042000F02DFB0021B6
:10190000042000F029FB46E0C748844208D10121A9
:10191000082000F021FB0021082000F01DFB3AE028
:10192000C248844208D10121102000F015FB00219B
:10193000102000F011FB2EE0BD48844208D10121A7
:10194000202000F009FB0021202000F005FB22E010
:10195000B848844208D10121402000F0FDFA00215E
:10196000402000F0F9FA16E0B348844208D1012182
:10197000802000F0F1FA0021802000F0EDFA0AE06A
:10198000AE48844207D10121801500F0E5FA00211C
:10199000A01500F0E1FA10BD10B50121084600F0D5
:1019A000DBFA0021012000F0D7FA10BD2DE9F0414B
:1019B000024600250026002000230024002791F87D
:1019C00003C00CF00F0591F803C00CF0100CBCF133
:1019D000000F03D091F802C04CEA050591F800C051
:1019E000BCF1000F31D0146800202BE04FF0010C47
:1019F0000CFA00F3B1F800C00CEA03069E4220D1B5
:101A000083004FF00F0C0CFA03F7BC4305FA03FCFC
:101A10004CEA040491F803C0BCF1280F06D14FF042
:101A2000010C0CFA00FCC2F814C00AE091F803C0E3
:101A3000BCF1480F05D14FF0010C0CFA00FCC2F8C4
:101A400010C0401C0828D1D31460B1F800C0BCF10C
:101A5000FF0F34DD546800202EE000F1080C4FF039
:101A6000010808FA0CF3B1F800C00CEA03069E4224
:101A700021D183004FF00F0C0CFA03F7BC4305FA99
:101A800003FC4CEA040491F803C0BCF1280F05D113
:101A900000F1080C08FA0CF8C2F8148091F803C0A1
:101AA000BCF1480F07D100F1080C4FF0010808FA0B
:101AB0000CF8C2F81080401C0828CED35460BDE852
:101AC000F0814FF6FF710180022181700421C17005
:101AD00070470246002093680B400BB1012000E0E4
:101AE000002070470146886880B270470246002097
:101AF000D3680B400BB1012000E000207047014685
:101B0000C86880B2704701617047416170470AB18F
:101B1000016100E041617047C16070474FF480325D
:101B20000A438261816182618269826970470246EB
:101B30000020434B18684FF68073184040EA0210AB
:101B400008433F4B186070473E49C8617047F0B585
:101B50000A46002300240021002500F00046B6F1CB
:101B6000004F02D1364EF16901E0354E7168C0F385
:101B7000034583B200F44016B6F5401F08D121F0AA
:101B800070612F4E766826F070662D4F7E6012E0F1
:101B900000F48016B6F5801F06D1032606FA05F478
:101BA000A14341F0706106E0460D360103FA06F6E6
:101BB000B14341F0706122B1460D360103FA06F6D9
:101BC000314300F00046B6F1004F02D11C4EF161E6
:101BD00001E01B4E7160F0BD30B500228B071C0F79
:101BE0000F2303FA04F2164B08338C1053F82430F9
:101BF0009343134C08348D1044F8253023468C1041
:101C000053F824308C07240F00FA04F423430C4CBF
:101C100008348D1044F8253030BD0A49DC310860A5
:101C20007047000000080140000C01400010014016
:101C30000014014000180140001C01400020014038
:101C40000000014000002042DF48006840F0010031
:101C5000DD49086008464068DC490840DA494860C8
:101C600008460068DA490840D74908600846006815
:101C700020F4802008600846406820F4FE00486098
:101C80004FF41F0088607047CF49096821F4803104
:101C9000CD4A11601146096821F480211160B0F528
:101CA000803F03D0B0F5802F0ED106E0C649096809
:101CB00041F48031C44A116007E0C349096841F426
:101CC000A021C14A116000E000BF00BF704710B5FD
:101CD00001460022002300204A11012A02D1BA4CF9
:101CE000236806E0022A02D1B74C236A01E0B64C11
:101CF000636A01F01F02012494401C400CB10120D2
:101D000000E0002010BD38B5002000900024002520
:101D100000BF3120FFF7DBFF05460098401C009014
:101D20000098B0F5A06F01D0002DF2D03120FFF760
:101D3000CEFF08B1012400E00024204638BD014652
:101D40000020A14A106820F0F80040EAC1001060AD
:101D50007047A04908607047024600209A4B5868B7
:101D600020F47C1042EA01031843974B58607047F7
:101D700098490866704701460020934A506820F051
:101D800003000843506070478F48406800F00C0023
:101D90007047014600208C4A506820F0F00008434C
:101DA0005060704701460020874A506820F4E06088
:101DB00008435060704701460020834A506820F471
:101DC000605040EAC1005060704729B17E4A527AA3
:101DD00002437D4B5A7204E07B4A527A82437A4B2B
:101DE0005A7270477B49D83108607047014600201D
:101DF000754A506820F44040084350607047002105
:101E0000714A20321170704A82F82010012802D0E5
:101E100004280AD104E001216B4A2032117005E048
:101E20000521694A2032117000E000BF00BF7047F1
:101E30006949086070476449096A0143624A11624E
:101E40007047654944390860704730B50021002269
:101E5000002400235C4D6D6805F00C0121B10429BC
:101E600005D0082923D105E05C4D056022E05C4DDA
:101E700005601FE0544D6D6805F47012524D6D6899
:101E800005F48034022505EB92421CB9554D5543AB
:101E900005600BE04C4D6D6805F400351DB1524DE9
:101EA0005543056002E04E4D5543056002E04B4D41
:101EB000056000BF00BF444D6D6805F0F0010909E1
:101EC0004A4D6B5C0568DD4045603F4D6D6805F42B
:101ED000E061090A454D6B5C4568DD4085603A4D1F
:101EE0006D6805F46051C90A404D6B5C4568DD4082
:101EF000C560354D6D6805F44041890B3C4D6B5C08
:101F0000C568B5FBF3F5056130BD29B12E4A5269AC
:101F100002432D4B5A6104E02B4A526982432A4BFB
:101F20005A61704729B1284A92690243264B9A6147
:101F300004E0254A92698243234B9A61704729B194
:101F4000214AD2690243204BDA6104E01E4AD26979
:101F500082431D4BDA61704729B11B4AD2680243A4
:101F6000194BDA6004E0184AD2688243164BDA60F3
:101F7000704729B1144A12690243134B1A6104E0F5
:101F8000114A12698243104B1A6170471249403955
:101F9000086070470F49C86470470B49C8717047A3
:101FA0000948406A40F0807007494862704701461E
:101FB0000020054A92680A400AB1012000E0002092
:101FC0007047014988727047001002400000FFF816
:101FD000FFFFF6FE000042428004424200127A00F7
:101FE000001BB70000093D00808D5B009A0D0020AA
:101FF000AA0D002010B50446FE48844208D10121F4
:10200000C014FFF7A9FF0021E014FFF7A5FFC4E00B
:10201000B4F1804F08D101210846FFF7AAFF002143
:102020000120FFF7A6FFB8E0F348844208D1012160
:102030000220FFF79EFF00210220FFF79AFFACE08D
:10204000EE48844208D101210420FFF792FF0021CD
:102050000420FFF78EFFA0E0E948844208D1012167
:102060000820FFF786FF00210820FFF782FF94E099
:10207000E448844208D101211020FFF77AFF0021B3
:102080001020FFF776FF88E0DF48844208D1012165
:102090002020FFF76EFF00212020FFF76AFF7CE081
:1020A000DA48844208D101214014FFF755FF00218E
:1020B0006014FFF751FF70E0D548844209D1012137
:1020C000C804FFF749FF00214FF40020FFF744FF49
:1020D00063E0D048844209D101210805FFF73CFFA5
:1020E00000214FF48010FFF737FF56E0CA488442C2
:1020F00009D101214805FFF72FFF00214FF40010FF
:10210000FFF72AFF49E0C548844208D10121402059
:10211000FFF72FFF00214020FFF72BFF3DE0C048D5
:10212000844208D101218020FFF723FF0021802075
:10213000FFF71FFF31E0BB48844208D10121801521
:10214000FFF717FF0021A015FFF713FF25E0B648A2
:10215000844209D101210804FFF7FEFE00214FF45B
:102160008030FFF7F9FE18E0B048844209D1012120
:102170004804FFF7F1FE00214FF40030FFF7ECFEBA
:102180000BE0AB48844208D101218804FFF7E4FE4C
:1021900000214FF48020FFF7DFFE10BD00220288EF
:1021A000944B98420ED0994B98420BD0B0F1804F8F
:1021B00008D0914B984205D0904B984202D0904B5A
:1021C000984204D14FF68F731A404B881A438D4BB7
:1021D000984207D08C4B984204D04FF6FF431A40E8
:1021E000CB881A4302808B8883850B880385814BBB
:1021F00098420BD0854B984208D08B4B984205D023
:102200008A4B984202D08A4B984201D10B7A0386BE
:1022100001238382704770B5002400220023058CBF
:102220004FF6FE7635400584028C8388048B4FF68A
:102230008F752C40B51E2C400D882C43751E2A40EE
:102240000D892A434D882A436A4DA8420BD06F4D11
:10225000A84208D0744DA84205D0744DA84202D0BF
:10226000734DA84213D14FF6F7752A404D892A4382
:102270004FF6FB752A408D882A434FF6FF652B40A9
:102280004FF6FF552B408D892B43CD892B438380FF
:102290000483CD888586028470BD70B50024002239
:1022A0000023058C4FF6EF7635400584028C838839
:1022B000048B48F6FF752C404FF6FF452C400D88E7
:1022C0004FF6FF7606EA05252C434FF6DF752A40C8
:1022D0000D8906EA05152A434D8806EA05152A43A5
:1022E000444DA84202D0494DA8421DD14FF67F75FA
:1022F0002A404D894FF6FF7606EA05152A434FF628
:10230000BF752A408D8806EA05152A434FF6FF352A
:102310002B404FF2FF752B408D8906EA85052B4334
:10232000CD8906EA85052B4383800483CD88058704
:10233000028470BD70B5002400220023058C4FF686
:10234000FF6635400584028C8388848B4FF68F7539
:102350002C404FF6FC752C400D882C434FF6FF5552
:102360002A400D894FF6FF7606EA05252A434D8857
:1023700006EA05252A431F4DA84202D0234DA84254
:102380001DD14FF2FF752A404D894FF6FF7606EAC0
:1023900005252A434FF6FF352A408D8806EA052594
:1023A0002A434EF6FF752B404DF6FF752B408D8965
:1023B00006EA05152B43CD8906EA05152B438380D4
:1023C0008483CD888587028470BD70B50022002388
:1023D0000024058C4EF6FF7635400584038C8488F6
:1023E000828B48F6FF752A404FF6FF452A400D883C
:1023F00020E00000002C01400004004000080040E4
:10240000000C004000100040001400400034014067
:10241000004C0140005001400054014000180040B1
:10242000001C0040002000400040014000440140EA
:10243000004801404FF6FF7606EA05252A434DF68F
:10244000FF752B400D8906EA05352B434D8806EABA
:1024500005352B43FA4DA84202D0FA4DA84208D1C7
:102460004BF6FF752C408D894FF6FF7606EA8515F1
:102470002C4384808283CD88A0F84050038470BDB3
:10248000828B4FF2FF331A408283828B4FF6FF73A9
:1024900003EA01231A4382837047F0B50C461546C0
:1024A000002200210026078C4EF6FF7C07EA0C076D
:1024B0000784828B018C4FF6FF7707EA043640F6DB
:1024C000FF473A404FF6FF7707EA05273A434FF6B2
:1024D000FF7707EA03373A43D94FB8420ED0D94FB6
:1024E000B8420BD0B0F1804F08D0D74FB84205D0DA
:1024F000D64FB84202D0D64FB84206D14DF6FF773C
:10250000394046F48057394305E047F6FF573940D4
:1025100044F48057394382830184F0BD828B4FF6A7
:10252000F3731A408283828B0A4382837047F0B52B
:102530000C461546002200210026078C4FF6FF6C42
:1025400007EA0C070784828B018C4FF6FF7707EAB6
:1025500004264FF60C773A404FF6FF7707EA031749
:102560002F433A43B64FB8420ED0B64FB8420BD0C5
:10257000B0F1804F08D0B44FB84205D0B34FB84245
:1025800002D0B34FB84206D14FF6FF57394046F458
:102590008077394305E04FF2FF57394044F48077A4
:1025A000394382830184F0BD028B4FF2FF331A401E
:1025B0000283028B4FF6FF7303EA01231A4302835F
:1025C0007047F0B50C461546002200210026078C06
:1025D0004FF6EF7C07EA0C070784028B018C4FF65D
:1025E000FF7707EA041640F6FF473A404FF6FF77B9
:1025F00007EA03373A434FF6FF7707EA05273A43DE
:102600008F4FB8420ED08F4FB8420BD0B0F1804FF1
:1026100008D08D4FB84205D08C4FB84202D08C4FB5
:10262000B84206D14FF6DF77394046F010073943FC
:1026300005E04FF65F77394044F0100739430283D5
:102640000184F0BD028B4FF6F3731A400283028BB4
:102650000A4302837047F0B50C461546002200215C
:10266000068C4FF6FE773E400684028B018C4FF6B7
:102670000C7632407E1C06EA03162E433243704E1F
:10268000B0420ED06F4EB0420BD0B0F1804F08D0A8
:102690006D4EB04205D06D4EB04202D06C4EB0428D
:1026A00006D14FF6FD76314044F00106314305E096
:1026B0004FF6F576314044F0010631430283018440
:1026C000F0BD70B505460C465D4885420ED05D48AC
:1026D00085420BD0B5F1804F08D05B48854205D0CC
:1026E0005A48854202D05A48854200D100E000BFD6
:1026F000208850B92389A28861882846FFF7ABFF5C
:10270000E1882846FFF79EFF25E0208804280AD1AB
:102710002389A28861882846FFF753FFE18828466D
:10272000FFF742FF17E0208808280AD12389A288F2
:1027300061882846FFF7FBFEE1882846FFF7EEFE9A
:1027400009E02389A28861882846FFF7A6FEE18870
:102750002846FFF795FE70BD2DE9F04105460C4671
:1027600000260127608808B9022600E00026A0881C
:10277000012801D1022700E001272088A0B9238980
:10278000A28861882846FFF766FFE1882846FFF7A0
:1027900059FF23893A4631462846FFF712FFE18860
:1027A0002846FFF701FF13E02389A28861882846A5
:1027B000FFF707FFE1882846FFF7F6FE23893A4630
:1027C00031462846FFF747FFE1882846FFF73AFFE2
:1027D000BDE8F0810A884B881A438B881A43CB885E
:1027E0001A430B891A434B891A438B891A43A0F861
:1027F000442070474FF6FF71818000210180C18025
:102800004180017270470021018041808180C18038
:10281000018141818181C181704700210180418016
:10282000012181800021C180018170470021018048
:1028300041808180C1800181418181817047000098
:10284000002C01400034014000040040000800401A
:10285000000C004021B1028842F00102028004E035
:1028600002884FF6FE731A400280704731B1B0F80B
:10287000442042F40042A0F8442005E0B0F844208F
:10288000C2F30E02A0F8442070471AB183890B43AB
:10289000838102E083898B43838170478182704703
:1028A00041EA0203A0F8483070471AB183890B430C
:1028B000838102E083898B438381704701894FF6CE
:1028C000F8721140018170470A46002101894FF6D4
:1028D0008F73194011430181704730B504460D468E
:1028E00029462046FFF7F0FF208940F007002081AD
:1028F00030BD2DE9F04104460D4616461F46602DB9
:1029000006D13B46012231462046FFF75AFE05E03C
:102910003B46012231462046FFF79DFE29462046D0
:10292000FFF7D2FF208940F007002081BDE8F08149
:1029300030B50C4600210189C9B24FF6FF7505EA92
:102940000325154325432943018130BD2DE9F0417D
:1029500005460E4617469846002443463A463146F9
:102960002846FFF7E5FF2C894FF6F870044044F045
:1029700007044FF68F70044044F070042C81BDE8CA
:10298000F081F0B504460D4616461F463B463246DA
:1029900029462046FFF7CCFF208940F48040208163
:1029A000F0BD0185828270470A46002101884FF6FA
:1029B0008F731940114301807047F0B50C461546DE
:1029C0001E460021002200230189028B038C4FF652
:1029D000F877394021434FF6FC473A4040F201175F
:1029E0003A434FF6DD773B404FF6FF7707EA06178D
:1029F0002F433B43018102830384F0BD0A4600213B
:102A0000018B4FF68F7319401143018370470A46BB
:102A10000021018B48F6FF7319404FF6FF7303EA5C
:102A200002231943018370470A460021818B4FF628
:102A30008F7319401143818370470A460021818BAF
:102A400048F6FF7319404FF6FF7303EA0223194358
:102A50008183704721B1028842F08002028004E045
:102A600002884FF67F731A400280704721B1828836
:102A700042F00402828004E082884FF6FB731A4021
:102A80008280704721B1828842F00802828004E08F
:102A900082884FF6F7731A408280704721B182888E
:102AA00042F00102828004E082884FF6FE731A40F1
:102AB000828070470A460021018B4FF6F773194058
:102AC0001143018370470A460021018B4FF2FF73C7
:102AD00019404FF6FF7303EA02231943018370473D
:102AE0000A460021818B4FF6F77319401143818309
:102AF00070470A460021818B4FF2FF7319404FF651
:102B0000FF7303EA02231943818370470A460021B9
:102B1000018B4FF6FB7319401143018370470A463E
:102B20000021018B4FF6FF3319404FF6FF7303EA84
:102B300002231943018370470A460021818B4FF617
:102B4000FB7319401143818370470A460021818B32
:102B50004FF6FF3319404FF6FF7303EA0223194380
:102B6000818370470A460021018B4FF67F7319401D
:102B70001143018370470A460021018BC1F30E0106
:102B80004FF6FF7303EA02231943018370470A4695
:102B90000021818B4FF67F73194011438183704769
:102BA0000A460021818BC1F30E014FF6FF7303EA41
:102BB00002231943818370470A460021018C4FF696
:102BC000FD7319401143018470470A460021018CAE
:102BD0004FF6F77319401143018470470A460021EC
:102BE000018C4FF6DF7319404FF6FF7303EA0213AF
:102BF0001943018470470A460021018C4FF67F7308
:102C000019404FF6FF7303EA02131943018470471A
:102C10000A460021018C4FF6FF5319404FF6FF730F
:102C200003EA02231943018470470A460021018CFC
:102C30004FF2FF7319404FF6FF7303EA0223194363
:102C4000018470470A460021018C4DF6FF7319403C
:102C50004FF6FF7303EA023319430184704730B51E
:102C6000002301248C40A3B2048C9C430484048C74
:102C700002FA01F5ADB22C43048430BD30B5002317
:102C800004248C40A3B2048C9C430484048C02FA78
:102C900001F5ADB22C43048430BD70B5034600206D
:102CA00000241846183001258D40ACB21D8CA54378
:102CB0001D8409B1082909D100EB6100056825F0E0
:102CC000700505600568154305600EE00D1FC5F32E
:102CD0004E052844056825F4E045056005684FF673
:102CE000FF7606EA02263543056070BD21B10288F1
:102CF00042F00202028004E002884FF6FD731A409F
:102D00000280704721B1028842F00402028004E090
:102D100002884FF6FB731A400280704721B1828807
:102D200042F08002828004E082884FF67F731A406E
:102D30008280704702884FF6F7731A40028002883B
:102D40000A430280704782884FF68F731A40828050
:102D500082880A438280704702894FF6F8731A40CE
:102D6000028102890A430281704702894FF67F730C
:102D70001A40028102890A430281704781847047A8
:102D800081857047818670470187704781877047CA
:102D9000A0F84010704702884FF6FF431A400280A7
:102DA00002880A43028070470146888E70470146B8
:102DB000088F70470146888F70470146B1F8400080
:102DC00070470146888C70470146088D704702465F
:102DD0000020138A0B400BB1012000E00020704757
:102DE000CA430282704730B5024600200023002407
:102DF000158A05EA0103958905EA010413B10CB1AE
:102E0000012000E0002030BDCA430282704700006C
:102E100010B50446FB48844209D101218803FFF71D
:102E20009BF800214FF48040FFF796F832E0F64817
:102E3000844209D101214804FFF79BF800214FF497
:102E40000030FFF796F825E0F048844209D10121CF
:102E50008804FFF78EF800214FF48020FFF789F8EF
:102E600018E0EB48844209D10121C804FFF781F83A
:102E700000214FF40020FFF77CF80BE0E548844286
:102E800008D101210805FFF774F800214FF48010E4
:102E9000FFF76FF810BD2DE9F04786B005460E46E6
:102EA0000024A24600BFA1460027B08900B100BFA0
:102EB0002F462C8A4CF6FF700440F08804432C8285
:102EC000AC894EF6F3100440B0883189084371890B
:102ED00008430443AC81AC8A4FF6FF400440B089FC
:102EE0000443AC8201A8FEF7B0FFC648874202D176
:102EF000DDF810A001E0DDF80CA0A88900F4004086
:102F000040B10AEBCA0000EB0A1031684900B0FB7F
:102F1000F1F807E00AEBCA0000EB0A1031688900FB
:102F2000B0FBF1F86420B8FBF0F004012009642143
:102F300001FB1089A88900F4004040B1322000EB69
:102F4000C900B0FBF1F000F00700044308E03220B4
:102F500000EB09106421B0FBF1F000F00F00044316
:102F60002C8106B0BDE8F0874FF4165101600021B6
:102F70008180C18001810C214181002181817047C4
:102F800010B502460020108A4FF2FF0318400B884C
:102F90004C8823438C882343CC88234318431082D6
:102FA00010BD0021018041808180C180704721B126
:102FB000828942F40052828104E082894DF6FF73D7
:102FC0001A4082817047F0B5034600240026002590
:102FD000002040F66A17B94200D100BF1846C1F37D
:102FE000421401F01F06012707FA06F5012C01D152
:102FF0000C3004E0022C01D1103000E014301AB182
:1030000007682F43076002E00768AF430760F0BD21
:103010001AB1838A0B43838202E0838A8B438382C3
:103020007047028A4FF6F0731A400282028A0A43FE
:103030000282704782894FF2FF731A40828182892F
:103040000A438281704721B1828942F00202828163
:1030500004E082894FF6FD731A4082817047028A2C
:103060004FF6DF731A400282028A0A4302827047D7
:1030700021B1028A42F48042028204E0028A4BF6C5
:10308000FF731A4002827047C1F3080282807047C2
:1030900001468888C0F308007047818941F001012A
:1030A00081817047028BD2B20283028B42EA0122F5
:1030B00002837047028B02F47F420283028B0A4331
:1030C0000283704721B1828A42F02002828204E0AA
:1030D000828A4FF6DF731A408282704721B1828A5A
:1030E00042F01002828204E0828A4FF6EF731A40A7
:1030F0008282704721B1828A42F00802828204E013
:10310000828A4FF6F7731A408282704721B1828912
:1031100042F40042828103E08289C2F30E0282817E
:10312000704721B1828A42F40062828204E0828A7E
:103130004FF2FF731A4082827047828A4FF6FB7308
:103140001A408282828A0A438282704721B1828A2F
:1031500042F00202828204E0828A4FF6FD731A4036
:103160008282704702460020B1F5007F00D100BF87
:1031700013880B400BB1012000E00020704701F4E0
:103180000072B2F5007F00D100BFCA4302807047D1
:1031900070B50246002400230025002040F66A1680
:1031A000B14200D100BFC1F3421501F01F03012657
:1031B00006FA03F3012D02D19689334006E0022D71
:1031C00002D1168A334001E0968A33400C12012660
:1031D00006FA04F41688344013B10CB1012000E063
:1031E000002070BD10B50022002340F66A14A142F1
:1031F00000D100BF0A1201249440A3B2DC43048032
:1032000010BD00000038014000440040004800406C
:10321000004C00400050004031490143314A1160E8
:10322000704770B5002100230F22C47804B32D4CE1
:10323000246804F4E064C4F5E064210AC1F10403E5
:10324000CA40447804FA03F1847814402143090108
:10325000254C0678A155047804F01F050124AC40E4
:1032600005786D11AD0005F1E025C5F8004109E0D4
:10327000047804F01F050124AC401C4D067876113B
:1032800045F8264070BD1A4A0A400243154B1B1FE1
:103290001A60704739B1134A121D12680243114B6C
:1032A0001B1D1A6006E00F4A121D126882430D4B67
:1032B0001B1D1A607047042808D14FF0E0210969EE
:1032C00041F004014FF0E022116107E04FF0E021EE
:1032D000096921F004014FF0E022116170470000FC
:1032E0000000FA050CED00E000E400E080E100E001
:1032F00080FFFF1F01684FF6FE7211400160002140
:10330000016041608160C1608D49884208D18C496B
:103310000839496841F00F01894A083A51608AE04A
:1033200087491431884208D185490839496841F0F4
:10333000F001834A083A51607DE081492831884292
:1033400008D17F490839496841F470617C4A083ADC
:10335000516070E07A493C31884208D17849083997
:10336000496841F47041764A083A516063E0744913
:103370005031884208D172490839496841F47021B6
:103380006F4A083A516056E06D496431884208D16D
:103390006B490839496841F47001694A083A51603B
:1033A00049E067497831884208D165490839496858
:1033B00041F07061624A083A51603CE061498842DC
:1033C00006D1011F096841F00F01021F116032E0B0
:1033D0005C491431884208D15A49091F096841F0F3
:1033E000F001584A121F116025E0564928318842E1
:1033F00008D15449091F096841F47061514A121FEC
:10340000116018E04F493C31884208D14D49091FED
:10341000096841F470414B4A121F11600BE04949A1
:103420005031884207D14749091F096841F470218A
:10343000444A121F1160704710B50022026847F617
:10344000F0739A430C6A8B6823430C6923434C69DD
:1034500023438C692343CC6923434C6A23438C6AFE
:1034600023431A430260CB6843600B6883604B6858
:10347000C36010BD0021016041608160C1600161D5
:1034800041618161C161016241628162704721B124
:10349000026842F00102026004E002684FF6FE7327
:1034A0001A40026070471AB103680B43036002E0E0
:1034B00003688B430360704741607047014648686A
:1034C00080B2704701460020002201F080531BB1FA
:1034D0001C4B083B1A6802E0194B083B1A6802EAC9
:1034E00001030BB1012000E00020704700F0805183
:1034F00019B11449091F086002E0114908394860F0
:10350000704701460020002201F080531BB10D4B93
:10351000083B1A6802E00A4B083B1A6802EA0103FA
:103520000BB1012000E00020704700F0805119B17C
:103530000449091F086002E00149083948607047E2
:10354000080002400804024010B50446F7488442CF
:1035500009D101214805FEF70CFD00214FF40010B0
:10356000FEF707FD08E001218805FEF702FD0021B6
:103570004FF48000FEF7FDFC10BD2DE9F04385B04F
:1035800004460D460026B1460427DFF8A483A6882A
:103590004FF6C07006406846FEF757FCDDF808801D
:1035A000E448B8FBF0F01FFA80F946EA0906A68065
:1035B00020884FF6FE71084020800026DE492868EA
:1035C00088420CD828684000B8FBF0F087B2042F7E
:1035D00000DA04273E4309F10100208427E0E8884F
:1035E0004BF6FF71884206D1286800EB4000B8FB1B
:1035F000F0F087B209E0286800EBC00101EB001091
:10360000B8FBF0F087B247F48047C7F30B0008B966
:1036100047F0010747F4004006434FF4967009FB5A
:1036200000F04FF47A7190FBF1F0401C2084A683E7
:10363000208840F00100208026884FF6F5300640B3
:10364000A8886989084306432680A88929890843F0
:10365000208105B0BDE8F08341F28831016000218E
:1036600081804BF6FF71C1800021018141814FF4BF
:1036700080418181704721B1028842F001020280BD
:1036800004E002884FF6FE731A400280704721B1B1
:10369000828842F40062828004E082884FF2FF73E5
:1036A0001A408280704721B1828842F48052828021
:1036B00004E082884EF6FF731A408280704721B181
:1036C000028842F48072028004E002884FF6FF63B1
:1036D0001A400280704721B1028842F400720280D1
:1036E00004E002884FF6FF531A400280704721B170
:1036F000028842F48062028004E002884FF6FF33C1
:103700001A40028070470A46002181894FF60173F2
:10371000194002F0FE0319438181704721B182896B
:1037200042F00102828104E082894FF6FE731A4062
:103730008281704721B1028842F04002028004E099
:1037400002884FF6BF731A40028070471AB183880F
:103750000B43838002E083888B4383807047018220
:1037600070470146088AC0B2704712B141F00101AA
:1037700002E04FF6FE7319400182704708B5024619
:103780000020009000920098084400900098008863
:1037900008BD21B1028842F40042028003E00288A1
:1037A000C2F30E0202807047B1F5006F04D10288A7
:1037B00042F40062028004E002884FF2FF731A4074
:1037C00002807047B1F5005F04D1028842F40052D4
:1037D000028004E002884DF6FF731A4002807047B1
:1037E00021B1028842F48052028004E002884EF641
:1037F000FF731A4002807047B1F5006F04D1028850
:1038000042F40062028004E002884FF2FF731A4023
:103810000280704721B1028842F02002028004E059
:1038200002884FF6DF731A40028070470146088B0A
:103830000012704721B1028842F01002028004E0B9
:1038400002884FF6EF731A400280704721B9028850
:1038500042F08002028004E002884FF67F731A4033
:1038600002807047B1F5804F05D0828B4BF6FF7315
:103870001A40828303E0828B42F480428283704745
:1038800070B502460024002500230020958A138B82
:103890001B0445EA030626F07F4404EA01068E4233
:1038A00001D1012000E0002070BD10B501460020CC
:1038B000002300228B8A0A8B120443EA020424F0BC
:1038C0007F4010BD0CB502460020002301930093F9
:1038D00000920B0F019321F07F41019B1BB1009BD4
:1038E0001433009303E0090C009B18330093009BF2
:1038F0001B680B400BB1012000E000200CBD002232
:1039000021F07F42D3438382704730B502460020C6
:103910000023948801F0E06504EA154321F07F411B
:10392000948A0C4054B14BB1012008E0005400408F
:1039300000127A0040420F00A0860100002030BD36
:10394000002221F07F42D343838270472DE9F05F4C
:1039500006460D464FF0000B2888052844D17078A4
:103960004FEA002AB07840EA0A0AF0780402307977
:103970000443012C35DBB4F5FA6F32DA3746002008
:103980002880012007F8010B2888401C288004F0BB
:10399000070040B12046E11704EB5171C910491CE2
:1039A00001F0FF0805E02046E11704EB5171C1F377
:1039B000C70807F8018B2888401C2880002322466E
:1039C00051463846FCF7A3FC8146B9F1000F04D0FC
:1039D000484600F0B2FA834608E028884044288030
:1039E00004E04FF0030B01E04FF0030B5846BDE835
:1039F000F09F2DE9F84304460E464FF0000830884A
:103A0000052827D160780702A07807432079F0B90C
:103A1000E078FF2801D0E078C8B900208DF80100D7
:103A2000E078FF2803D101208DF8000002E000209B
:103A30008DF8000001231A4639466846FCF767FCFA
:103A400005464DB1284600F078FA804604E04FF074
:103A5000030801E04FF003084046BDE8F8832DE974
:103A6000F05F05460E464FF0000B3088052838DD24
:103A700068784FEA0029A87840EA0909E878040242
:103A80002879044395F805A004F0070038B12046D2
:103A9000E11704EB5171C910491CCFB205E0204673
:103AA000E11704EB5171C1F3C707012C16DBB4F524
:103AB000F66F13DC574511D1012322464946A81D54
:103AC000FCF725FC8046B8F1000F04D0404600F01A
:103AD00034FA834607E00520308004E04FF0030B02
:103AE00001E04FF0030B5846BDE8F09F2DE9F05F71
:103AF00006460D464FF0000B2888052843D1707804
:103B00004FEA002AB07840EA0A0AF07804023079D5
:103B10000443012C34DBB4F5FA6F31DA3746002068
:103B20002880022007F8010B2888401C288004F018
:103B3000070040B12046E11704EB5171C910491C40
:103B400001F0FF0805E02046E11704EB5171C1F3D5
:103B5000C70807F8018B2888401C28802246514658
:103B60003846FCF71DFC8146B9F1000F04D04846E9
:103B700000F0E3F9834608E028884044288004E008
:103B80004FF0030B01E04FF0030B5846BDE8F09FE8
:103B90002DE9F04104460E464FF000083088052814
:103BA00010D160780702A078074301231A463946EE
:103BB000E01CFCF76EFB054635B1284600F0BDF968
:103BC000804601E04FF003084046BDE8F0812DE952
:103BD000F04704460E464FF0000A3088062826DBE0
:103BE00060784FEA0028A07840EA0808E0780502EB
:103BF0002079054394F80590012D15DB782D13DC11
:103C00006806000E48450FD101232A464146A01DF3
:103C1000FCF73FFB074627B1384600F08EF9824695
:103C200007E00520308004E04FF0030A01E04FF088
:103C3000030A5046BDE8F0872DE9F04705460C46DB
:103C40004FF0000A2088052833D168784FEA002910
:103C5000A87840EA0909E87806022E79012E25DBCA
:103C60007D2E23DC2F4600202080032007F8010B47
:103C70002088401C20807006000E07F8010B208869
:103C8000401C20800023324649463846FCF701FBA1
:103C90008046B8F1000F04D0404600F04EF982464D
:103CA00009E0208800EB4600208004E04FF0030A82
:103CB00001E04FF0030A5046BDE8F0872DE9FC5FB4
:103CC00004460D460020009028880A285DDB6078B5
:103CD0004FEA002AA07840EA0A0A0AF101001FFA16
:103CE00080FAE07806022079064360794FEA002BDB
:103CF000A07940EA0B0B0BF101001FFA80FBE07981
:103D00000702207A0743607A0190012E3BDB7D2E6B
:103D100039DC012F37DB792F35DC790001988142BE
:103D200031D101233A46594604F10A00FCF7B1FAB1
:103D30008146B9F1000F1ED1A0460020288017202F
:103D400008F8010B2888401C28807006000E08F82F
:103D5000010B2888401C28800023324651464046EB
:103D6000FCF797FA8146B9F1000F04D128880221A7
:103D700001FB06002880B9F1000F06D0484600F08C
:103D8000DCF8009001E0032000900098BDE8FC9F63
:103D90002DE9F04705460C464FF0000A208805281B
:103DA00033D168784FEA0029A87840EA0909E87811
:103DB000060228790643012E24DB7D2E22DA2F46C7
:103DC00000202080042007F8010B2088401C208060
:103DD0007006000E07F8010B2088401C2080324638
:103DE00049463846FCF733FA8046B8F1000F04D054
:103DF000404600F0A2F8824609E0208800EB460029
:103E0000208004E04FF0030A01E04FF0030A50461F
:103E1000BDE8F0872DE9F04105460E4617461C46E1
:103E20004FF00008A01C202826DA00201C4908803A
:103E3000084601880088401C194A108019484554DA
:103E40000EB1FF2200E00022154801880088401CC6
:103E5000134B188013484254002C0FDD01461A46BC
:103E6000128888182246394600F024FA0C48008847
:103E700020440B49088001E04FF004084046BDE8AB
:103E8000F08170B505460C46054802880549681C56
:103E900000F010FA02480088401C2080002070BD0D
:103EA000660E0020280F00202DE9FF5F05460E4614
:103EB0009046DDF80CB0B8F1080F00DC04E03822C1
:103EC00026A131A000F0B8F9F408A6EBC4001FFA4F
:103ED00080FA0BFA0AF01FFA80FB012000FA08F0C2
:103EE000401E1FFA80F9A6EBC40009FA00F01FFA81
:103EF00080F92F5D601C285C47EA002727EA09004B
:103F000040EA0B072F553912601C2954BDE8FF9F6A
:103F1000F0B503460C461546E208A4EBC20087B292
:103F20000120A840401E86B2995C501C185C41EAF2
:103F3000002139413140C8B2F0BD014621B101290B
:103F400004D0072906D103E0002005E0022003E0A9
:103F5000062001E0042000BF00BF70472E2E5C4603
:103F60007265654D6F646275735C6D6F64627573C5
:103F70005C66756E6374696F6E735C6D627574698F
:103F80006C732E630000000075634E4269747320E9
:103F90003C3D20380000000070B505460C465DB180
:103FA000012240F225515F48FFF70DF84FF4805190
:103FB0005D48FDF7AAFD0AE0002240F2255159486C
:103FC000FFF701F84FF480515748FDF79CFD34B1DD
:103FD000012240F226615348FEF7F5FF05E000227A
:103FE00040F226614F48FEF7EEFF70BDF0B587B096
:103FF00005460C4616461F46012144F20400FDF713
:1040000091FF4FF40070ADF8180003208DF81A00EE
:1040100018208DF81B0006A94348FDF7C7FC4FF494
:104020008060ADF8180003208DF81A0004208DF888
:104030001B0006A93C48FDF7B9FC02940020ADF82E
:104040000C00ADF80E00ADF81000ADF814000C2017
:10405000ADF8120002A93348FEF71DFF01213148D7
:10406000FEF7A5FF4FF4C060FFF7D6F825208DF8C6
:10407000040000208DF8050001208DF806008DF861
:10408000070001A8FFF7CDF801210420FDF74AFF42
:104090004FF48050ADF8180003208DF81A0010205E
:1040A0008DF81B0006A92048FDF780FC012007B011
:1040B000F0BD10B5044621461A48FEF7E5FF012081
:1040C00010BD10B504461748FEF7E2FF207001202E
:1040D00010BD10B515480068804710BD10B51448D4
:1040E0000068804710BD10B540F225510D48FFF71C
:1040F0004FF8012806D1FFF7F1FF40F2255109489A
:10410000FFF770F840F226610648FFF741F80128F2
:1041100006D1FFF7DEFF40F226610248FFF762F8A2
:1041200010BD00000038014000080140CC0D002007
:10413000C80D00207FB50446002501210420FDF7AD
:10414000FEFE3A48006844F62061B0FBF1F0401EE4
:1041500085B2ADF80840ADF804500020ADF80A0073
:10416000ADF8060001A93248FEF718F801213048E1
:10417000FEF770FC4FF4C060FFF74EF81E208DF87C
:10418000000000208DF8010002208DF802000120BF
:104190008DF803006846FFF744F801212448FEF734
:1041A00033FE002201212248FEF76FFB0021204848
:1041B000FEF750FB012004B070BD10B501211C4872
:1041C000FEF722FE012211461948FEF75EFB002190
:1041D0001748FEF7D3FD01211548FEF73BFB10BD44
:1041E00010B501211248FEF70FFE002201211048F0
:1041F000FEF74BFB00210E48FEF7C0FD00210C48E6
:10420000FEF728FB10BD10B50A480068804710BDB6
:1042100010B501210648FEF7E6FD28B1012104484A
:10422000FEF7F2FDFFF7EFFF10BD00002C000020AD
:1042300000080040D00D00200EB5054614460E467D
:1042400012A000F087F8284600F084F815A000F0CE
:1042500081F8304600F07EF814A000F07BF80021D1
:104260008DF80B100A210DF10A008DF80A1007E0F5
:10427000224694FBF1F401FB1422303200F8012DA8
:10428000002CF5DC00F066F800F05CF82A2A2A2001
:10429000617373657274696F6E206661696C6564C1
:1042A0003A2000002C2066696C6520002C206C6987
:1042B0006E652000032A40F2308010F0030C00F0FD
:1042C000158011F8013BBCF1020F624498BF11F850
:1042D00001CB00F8013B38BF11F8013BA2F1040209
:1042E00098BF00F801CB38BF00F8013B11F0030381
:1042F00000F03A80083AC0F0088051F8043B083AD0
:1043000051F804CBA0E80810F5E7121D5CBF51F886
:10431000043B40F8043BAFF30080D20724BF11F800
:10432000013B11F801CB48BF11F8012B24BF00F865
:10433000013B00F801CB48BF00F8012B70477047E4
:1043400070477047002000F04FF8FBF72FFF012067
:1043500000F044F810B5044602E0641C00F036F8A2
:1043600020780028F9D110BD10B5203AC0F00B809C
:10437000B1E81850203AA0E81850B1E81850A0E869
:104380001850BFF4F5AF5FEA027C24BFB1E81850C3
:10439000A0E8185044BF18C918C0BDE810405FEA33
:1043A000827C24BF51F8043B40F8043B08BF7047AF
:1043B000D20728BF31F8023B48BF11F8012B28BFB4
:1043C00020F8023B48BF00F8012B704708B569464A
:1043D0008DF800000320ABBE08BD00000149182085
:1043E000ABBEFEE72600020010B500F035F8BDE8D0
:1043F000104000F02CB87047754600F045F8AE4606
:1044000005006946534620F00700854618B020B5E0
:10441000FDF75AFABDE820404FF000064FF00007C4
:104420004FF000084FF0000B21F00701AC46ACE85C
:10443000C009ACE8C009ACE8C009ACE8C0098D46C9
:1044400070470446AFF300802046FBF7BAFE002811
:1044500001D0FFF7C3BF704710B5002102A000F0E4
:1044600017F8012010BD0000534947414252543A09
:104470002041626E6F726D616C207465726D696E41
:104480006174696F6E00000000487047480F00209B
:1044900070B505460C460A2000E06D1CFFF796FF3C
:1044A00035B128780028F8D102E0641CFFF78EFFB0
:1044B00014B120780028F8D1BDE870400A20FFF739
:1044C00085BF0000000000000000002F0000000079
:1044D0000700070000147F147F1400242A7F2A128B
:1044E000006264081323003649552250000005037A
:1044F000000000001C224100000041221C000014AA
:10450000083E08140008083E0808000000A06000EB
:10451000000808080808000060600000002010087B
:104520000402003E5149453E0000427F40000042E7
:1045300061514946002141454B31001814127F104A
:10454000002745454539003C4A4949300001710979
:10455000050300364949493600064949291E00002D
:1045600036360000000056360000000814224100D4
:104570000014141414140000412214080002015104
:10458000090600324959513E007C1211127C007F0D
:1045900049494936003E41414122007F4141221CA8
:1045A000007F49494941007F09090901003E41490D
:1045B000497A007F0808087F0000417F4100002001
:1045C00040413F01007F08142241007F40404040AD
:1045D000007F020C027F007F0408107F003E4141F3
:1045E000413E007F09090906003E4151215E007FDE
:1045F000091929460046494949310001017F010155
:10460000003F4040403F001F2040201F003F4038F7
:10461000403F006314081463000708700807006136
:104620005149454300007F41410000552A552A5514
:10463000000041417F0000040201020400404040AC
:104640004040000001020400002054545478007FD0
:104650004844443800384444442000384444487FA7
:1046600000385454541800087E0901020018A4A40C
:10467000A47C007F080404780000447D40000040D2
:1046800080847D00007F102844000000417F4000AE
:10469000007C04180478007C080404780038444442
:1046A000443800FC242424180018242418FC007C1E
:1046B0000804040800485454542000043F44402097
:1046C000003C4040207C001C2040201C003C40302E
:1046D000403C004428102844001CA0A0A07C0044BA
:1046E00064544C441414141414140000000000000A
:1046F00000000000000000000000000000F80000C2
:104700000000000000333000000000100C06100C08
:104710000600000000000000000040C07840C078A3
:104720004000043F04043F040400007088FC08308B
:104730000000001820FF211E0000F008F000E01823
:10474000000000211C031E211E0000F008887000DC
:1047500000001E2123241927211010160E0000002E
:1047600000000000000000000000000000E018044D
:104770000200000000071820400000020418E000BA
:1047800000000040201807000000404080F08040FA
:1047900040000202010F01020200000000F00000D0
:1047A00000000101011F01010100000000000000E4
:1047B000000080B070000000000000000000000059
:1047C00000000001010101010101000000000000E2
:1047D0000000003030000000000000000000806099
:1047E0001804006018060100000000E0100808101E
:1047F000E000000F102020100F00001010F8000043
:1048000000000020203F20200000007008080888D9
:1048100070000030282422213000003008888848A9
:1048200030000018202020110E000000C02010F8D9
:10483000000000070424243F240000F808888808AA
:1048400008000019212020110E0000E010888818AF
:104850000000000F112020110E0000380808C83891
:1048600008000000003F0000000000708808088871
:104870007000001C222121221C0000E010080810FA
:10488000E0000000312222110F00000000C0C00033
:104890000000000000303000000000000080000038
:1048A0000000000080600000000000008040201038
:1048B0000800000102040810200040404040404031
:1048C0004000040404040404040000081020408094
:1048D00000000020100804020100007048080808C9
:1048E000F0000000003036010000C030C828E81099
:1048F000E0000718272423140B000000C038E00054
:104900000000203C23020227382008F8888888709D
:104910000000203F202020110E00C03008080808A9
:104920003800071820202010080008F80808081090
:10493000E000203F202020100F0008F88888E808B9
:104940001000203F20202320180008F88888E8085D
:104950001000203F200003000000C0300808083885
:10496000000007182020221E020008F80800000896
:10497000F808203F210101213F20000808F808081D
:1049800000000020203F2020000000000808F80858
:104990000800C08080807F00000008F888C02818C8
:1049A0000800203F20012638200008F808000000F9
:1049B0000000203F20202020300008F8F800F8F800
:1049C0000800203F003F003F200008F830C00008EA
:1049D000F808203F200007183F00E01008080810E2
:1049E000E0000F10202020100F0008F80808080829
:1049F000F000203F210101010000E010080808102C
:104A0000E0000F18242438504F0008F88888888860
:104A10007000203F2000030C302000708808080838
:104A200038000038202121221C00180808F8080846
:104A300018000000203F2000000008F808000008CF
:104A4000F808001F202020201F000878880000C8D8
:104A50003808000007380E010000F80800F80008C8
:104A6000F800033C0700073C0300081868808068D2
:104A7000180820302C03032C30200838C800C83810
:104A800008000000203F2000000010080808C83877
:104A900008002038262120201800000000FE020215
:104AA00002000000007F40404000000C30C00000C9
:104AB0000000000000010638C00000020202FE00F3
:104AC0000000004040407F0000000000040202029D
:104AD00004000000000000000000000000000000D2
:104AE00000008080808080808080000202040000BE
:104AF00000000000000000000000000080808080B6
:104B000000000019242222223F2008F800808000A3
:104B10000000003F112020110E0000000080808066
:104B20000000000E1120202011000000008080886D
:104B3000F800000E112020103F20000080808080AF
:104B40000000001F222222221300008080F08888AB
:104B500088180020203F20200000000080808080F6
:104B60008000006B94949493600008F8008080802B
:104B70000000203F210000203F2000809898000086
:104B800000000020203F20200000000000809898B6
:104B9000000000C08080807F000008F80000808056
:104BA0008000203F24022D302000000808F800007B
:104BB00000000020203F2020000080808080808036
:104BC0008000203F20003F20003F808000808080C8
:104BD0000000203F210000203F20000080808080D6
:104BE0000000001F202020201F0080800080800007
:104BF000000080FFA12020110E00000000808080B6
:104C00008000000E112020A0FF8080808000808026
:104C1000800020203F212000010000008080808053
:104C200080000033242424241900008080E0808048
:104C300000000000001F2020000080800000008095
:104C40008000001F202020103F20808080000080F6
:104C5000808000010E300806010080800080008006
:104C600080800F300C030C300F00008080008080AB
:104C700080000020312E0E312000808080000080D6
:104C8000808080818E701806010000808080808086
:104C900080000021302C2221300000000000807CA8
:104CA000020200000000003F404000000000FF0042
:104CB000000000000000FF0000000002027C8000F5
:104CC00000000040403F0000000000060101020219
:104CD000040400000000000000000000FC4C00087C
:104CE00000000020680E0000280100087051000834
:104CF000680E0020400700008C0100081011010020
:104D0000020003000400050006000700080001601F
:104D10001310002000300040005000600070008040
:104D2000009000016004A24A040BE00A010203049F
:104D3000060708090001B2A00E13F0100122FF05BA
:104D40000312F00001130F040122FF0502110F1ED0
:104D500010094040405F5555557504125F0C011114
:104D600021000C11200F094989790909090F201F19
:104D7000200800FE02424ACA4A030004114202FE11
:104D800020000E12FF40504C4340404F50505C40BA
:104D9000FFA013F8880122FF050213F8C0131F08B3
:104DA00001227F2003109F80E233808201040913D7
:104DB000E2A2928A86828080020005140040807FF1
:104DC00019100C00002424A4FEA3220022CCAA0562
:104DD000123E2407080601FF00013EF00604FF0210
:104DE00002029E357C539008C3F20840000F150460
:104DF00044827F01808040432C10284681A0011FFF
:104E000001200980C0E0F0F0F8F87C019007F8F884
:104E1000F8F0E0C0EA780AE0FCFFFFFF7F0F030133
:104E20003913071F1247FCE0A1211EE6FFFB2207F2
:104E3000154570227F0BD6C09522C015521F2C320B
:104E40003F4E8173100480E0F872833F07E630091B
:104E50000107070F1F1F3F3E010008503F1F1F0F94
:104E6000070300011506080511F8FCFCFC4416F0C8
:104E70001B123E7621D6091265651B0116200245DC
:104E80000020223F010153F925FF49001B7CFC0152
:104E90001902617413303C75871F07FF84050001F8
:104EA00003FFDF0511461AF0310404147F1F076069
:104EB000C3FE7F4D6180040514F8FCFF3FD82180BC
:104EC00021F9E23E01054C012405F8F8787801C784
:104ED00078F800450199FF2805000003DFD4FA782F
:104EE0002712E001254913FEBFCB0111CA180701A3
:104EF0000101030303CC5C063FFFFEFCF840031BEB
:104F0000003874B404F8E08042216085E988040325
:104F1000070FFF4D00030D5301034D9B033D050398
:104F20000D120603140680E0F0FCFEA60D10060329
:104F300035DA15F44D2504B12031350C06147F3FC8
:104F40000F0701060302100F01395E41180D6506B7
:104F5000030311C0F80181F82D01050F163F01B5BB
:104F6000032DAD04140AFF7F7C3C3E3E1E1E1EA096
:104F7000167CCF7FF0F0CF0415F5D2013C3E0149FD
:104F8000044D690426186EBEE020054D00050F1281
:104F90007F1FFD0445FFEE0F42030D47020512F08F
:104FA0008E0404167C1C0CFD0A127FD82DF20326F9
:104FB000FE04EC067B783C3C3C4306353EBEFF409D
:104FC000031D4203760F022E01FF05AFFFF07206AC
:104FD0001D0203B5028D000311606E3C02060546FA
:104FE000020218F8010D1722032D07030A120712F7
:104FF0003DFD040F143F0F9F0612C0381DD806094F
:10500000144A41F30A150F673E2006050E5407F3B4
:10501000031E80B7041DFF054278014DFF058D0179
:10502000083DE107ADFF045D00069D0F081F3FBF6F
:10503000D00452F0011DE4059E3F00052DF4054DFE
:10504000DB0551012DCC078C077FFEFEFCF0802094
:1050500008ADFF0475FF5D55081E01FF048C041F99
:105060001F1FFF054D02030E4F01FF065EF8FE06EF
:10507000B500FAC0BF11908E1FC003F20FC01D0D06
:105080000592FEBF31C041C119BB2EBE29032D1EA2
:10509000070A1501580A147F3D5E20870703F101B6
:1050A00000010E393FF2051C0D0C02028242221251
:1050B0002242820202D7042006182020272101184C
:1050C0000527202018FA280CCC8C90A084FE84A000
:1050D000908CCC8F000D1019180402103F100204A0
:1050E0001819001E2C0C0D1E0C00183C18000C1E6C
:1050F0000D1A0C380D8408E01010171010E0088409
:1051000082CCCC0701021E3E1E02DC082D660D6D0E
:105110006A0D3C040204069F0D022702FA1E118F3D
:105120000D2C05833E0008B50D2C05913D0008555A
:10513000031C06393C0008106E081FCF3B3E0C21B3
:105140001811081E17B90712BD182D7F071C064D30
:1051500039000805F90C12F3082D43032C055F3ABA
:105160000008590C04053AED3A0008CA0000000096
:04000005080000ED02
:00000001FF
