:020000040800F2
:10000000681500205D1F0008F5030008F7030008CD
:10001000FB030008FF0300080304000800000000C1
:1000200000000000000000000000000007040008BD
:1000300009040008000000000B0400080D0400087B
:10004000771F0008771F0008771F0008771F000838
:10005000771F0008771F0008771F0008771F000828
:10006000771F0008771F0008771F0008771F000818
:10007000771F0008771F0008771F0008771F000808
:10008000291100088B110008771F0008771F00084E
:10009000771F0008771F0008771F0008771F0008E8
:1000A000771F0008771F0008771F0008771F0008D8
:1000B00059090008771F0008C9580008771F000871
:1000C000771F0008771F0008771F0008771F0008B8
:1000D000771F00089F570008771F0008771F000848
:1000E000771F0008771F0008771F000800F002F84C
:1000F00000F05EF80AA090E8000C82448344AAF164
:100100000107DA4501D100F053F8AFF2090EBAE861
:100110000F0013F0010F18BFFB1A43F0010318473B
:100120001C6500003C65000010F8013B0A4413F018
:10013000030408BF10F8014B1D1108BF10F8015B44
:10014000641E05D010F8016B641E01F8016BF9D133
:10015000002D15D010F8014B03F00C030C2BA1EB74
:1001600004040ABF10F8013BA4EB8314A4EB03249E
:1001700005F1010314F8016B5B1E01F8016BF9D561
:10018000914238BF10F8013BD1D3704700230024BF
:1001900000250026103A28BF78C1FBD8520728BF97
:1001A00030C148BF0B6070471FB51FBD10B510BDF3
:1001B00005F07EFC1146FFF7F7FF00F009F805F0A7
:1001C0009CFC03B4FFF7F2FF03BC05F063FC0000E6
:1001D00008B500BF00BF00BF01F058FC00F008FAEE
:1001E00001F0EAFB01F038FB01F039F900F086FB81
:1001F0004FF44E71774801F0DEFF4FF4004176482E
:1002000001F0D9FF00204FF416530122114600904F
:1002100004F018F904F0D3F905E001F03BFE04F016
:10022000F3F900F009FBF8E730B5034600200DB202
:10023000002D19DB8D18082D16DC684D2D884D1BFF
:100240002CB20EE0664D35F814502D1203F8015B08
:10025000634D15F8145003F8015B651C2CB2551E54
:10026000AAB2002AEEDC00E0012030BDF0B5044661
:100270000D4600202EB2002E34DBAE18402E31DCAD
:10028000584E3688AE1B31B213B1012B29D112E082
:100290000EE0554E36F81160361204F8016B524EDE
:1002A00016F8116004F8016B4E1C31B2561EB2B242
:1002B000002AEEDC15E011E014F8017B3E024A4F03
:1002C00027F8116014F8016B37F811703E43464F60
:1002D00027F811604E1C31B2561EB2B2002AEBDC78
:1002E00000BF00E00120F0BD2DE9F04705460E46B5
:1002F000904699464FF0000A0FFA88F430B2002871
:1003000036DB06EB0800102832DC304607B2B9F1C4
:10031000000F03D0B9F1010F29D115E011E0082C2D
:1003200001DD082000E02046C2B2B9B22F4804F037
:100330005FFF05F8010BA4F1080004B207F1080003
:1003400007B2002CEBDC12E00EE015F8013B082CA4
:1003500001DD082000E02046C2B2B9B2234804F013
:1003600013FFA4F1080004B2002CEEDC00BF01E092
:100370004FF0010A5046BDE8F0872DE9F0470546E9
:100380000C4616464FF0000937B220B200281CDB9D
:10039000A019102819DC20461FFA80F812E0082F57
:1003A00001DD082000E03846C2B24146104804F0A2
:1003B0001FFF05F8010BA7F1080007B208F10800BC
:1003C0001FFA80F8002FEADC01E04FF001094846EF
:1003D000BDE8F087000C014000080140100000203B
:1003E00000000020120000203C0D0020140000201E
:1003F00016000020704700BFFEE700BFFEE700BF09
:10040000FEE700BFFEE77047704770477047000087
:100410000CB50020019000906C48006840F48030DA
:100420006A49086000BF6948006800F40030009025
:100430000198401C0190009818B90198B0F5A06F80
:10044000F1D16248006800F4003010B10120009042
:1004500001E0002000900098012843D15C4800682A
:1004600040F010005A4908600846006820F0030078
:1004700008600846006840F0020008605348406881
:10048000524948600846406848600846406840F461
:10049000806048600846406820F47C104860084648
:1004A000406840F4E81048600846006840F08070FA
:1004B000086000BF4548006800F000700028F9D0CF
:1004C0004248406820F003004049486008464068C0
:1004D00040F00200486000BF3C48406800F00C005B
:1004E0000828F9D10CBD10B5FFF792FF10BD10B56B
:1004F0003648006840F0010034490860084640680A
:10050000344908403149486008460068324908408B
:100510002E4908600846006820F4802008600846DC
:10052000406820F4FE0048604FF41F008860FFF729
:10053000DAFF4FF000602949086010BD10B50021B6
:1005400000200022214B5B6803F00C0121B104293B
:1005500006D0082928D107E0214B224C236027E050
:100560001F4B204C236023E0184B5B6803F4701092
:10057000164B5B6803F48032022303EB904022B9F0
:10058000194B4343174C23600DE0104B5B6803F499
:10059000003323B1144B4343124C236003E0104B50
:1005A0004343104C236003E00D4B0E4C236000BF0F
:1005B00000BF064B5B68C3F303130C4CE15C094BB3
:1005C0001B68CB40074C236010BD000000100240A8
:1005D000002002400000FFF8FFFFF6FE08ED00E0FB
:1005E00000127A001800002000093D001C000020C5
:1005F00000B591B04FF4804001F050FF0121084652
:1006000001F0DBFF01214FF4037001F0E3FF012053
:10061000ADF8000000208DF803006946A84801F0FD
:100620001DFD0120ADF8000000208DF80300694693
:10063000A44801F013FDA44803F0B0F9A3480190C9
:10064000A34802900020039002200490002005900F
:10065000802006904000079080000890202009909C
:1006600000020A9000200B9001A9974803F038FA85
:100670000121954803F05FFA00200C9001208DF8CD
:1006800034008DF835004FF460200E9000200F905C
:1006900002208DF840000CA98C484C3803F0CFFAAA
:1006A00007230122002189484C3803F060FB07230F
:1006B0000222082185484C3803F059FB0121834868
:1006C0004C3803F0F3FA012180484C3803F0E3FA88
:1006D0007E484C3803F001FB00BF7C484C3803F0E7
:1006E00001FB0028F9D179484C3803F005FB00BF25
:1006F00076484C3803F005FB0028F9D101217348F6
:100700004C3803F008FB11B000BD724951F82010BD
:10071000B1F5477F10D26F4951F820104FF4BE72E7
:100720005143A1F5AF21C8394FF47A72B1FBF2F110
:10073000694A42F820107EE0664951F82010B1F570
:10074000956F0FD2634951F8201040F213125143B4
:10075000624A891A4FF47A72B1FBF2F15E4A42F8AA
:10076000201068E05B4951F8201040F6E8129142F1
:100770000ED2584951F82010E4225143584A891AA0
:100780004FF47A72B1FBF2F1534A42F8201052E072
:10079000504951F8201040F6F23291420FD24D49A3
:1007A00051F8201001EBC1014E4AC2EB41114FF448
:1007B0007A72B1FBF2F1484A42F820103BE0454919
:1007C00051F82010B1F5566F0FD2424951F8201060
:1007D0004FF4CD725143444A891A4FF47A72B1FBF7
:1007E000F2F13D4A42F8201025E03A4951F8201034
:1007F00040F68E5291420FD2364951F820104FF4F4
:100800002F725143394A891A4FF47A72B1FBF2F1CF
:10081000314A42F820100EE02E4951F8201040F2E3
:10082000F6425143324A891A4FF47A72B1FBF2F11F
:10083000294A42F82010704710B52E480068B0F5DC
:10084000FA6F1CD12C4800684FF4FA61B0FBF1F04C
:1008500020490860284840684FF4FA61B0FBF1F085
:100860001C4948600020FFF750FF0120FFF74DFFB3
:100870000020204908602049086048601EE01D48AB
:100880000068B0F5FA6F06D900201A4908601A49C5
:100890000860486012E0184800680D49098808445B
:1008A00015490860084640680949498808441249C2
:1008B000486010480068401C0E49086010BD0000E8
:1008C00000080140000C0140080002404C24014097
:1008D0002C0000203800002040000020A029040047
:1008E000C4420300A4970500884E0B00B8691A00A3
:1008F00060053B0048000020300000201FB50121AA
:10090000084601F074FE1C208DF80C0000208DF8C4
:100910000D0001208DF80E008DF80F0003A802F0E5
:10092000D4FF4FF47A70ADF804004720ADF8000012
:100930000020ADF80600ADF8020069464FF0804097
:1009400001F080FF01221146900702F0F2FA012126
:10095000880702F0D3FA1FBD10B50121880702F005
:1009600096FD20B30121880702F0A2FD154800681A
:10097000401C14490860084600684FF47A71B0FBC7
:10098000F1F010B100200F4908600E4800680E48D1
:10099000006820B10C480068401E0B4908600B48F5
:1009A000006820B109480068401E084908600848EE
:1009B0000088B0F57A7F04DA05480088401C0449B5
:1009C000088010BD4C000020380C00203C0C00209A
:1009D000420C002010B500F001FC10BD1FB500F066
:1009E00044FC0020ADF804004BF6FF70ADF80600A3
:1009F000A020ADF808004FF48060ADF80A000001B7
:100A0000ADF80C00FE4800900121FE4803F0AFFB5A
:100A10006946FC4803F02DFB0121FA4803F0B3FBC3
:100A2000A020F94908801FBD00BFFEE762B67047ED
:100A300072B6704770B506460D461446F34804601A
:100A40004FF42040F249086007E0F1490868411E70
:100A5000EF4A116008B9FFF7E7FF4FF40031E948AA
:100A600003F0ACFC0028F0D10121E64803F0A3FB21
:100A70004FF48050E649086007E0E5490868411EE8
:100A8000E34A116008B9FFF7CFFFE249DD4803F000
:100A900073FC0028F1D0DC480088C1B20022D9489C
:100AA00003F0DFFB4FF48050D949086007E0D849D4
:100AB0000868411ED64A116008B9FFF7B5FFD6494C
:100AC000D04803F059FC0028F1D0290ACD4803F0A2
:100AD000C2FB4FF48050CE49086007E0CC4908685B
:100AE000411ECB4A116008B9FFF79EFFCA49891C15
:100AF000C44803F041FC0028F0D0E9B2C14803F03B
:100B0000AAFB4FF48050C249086007E0C04908685A
:100B1000411EBF4A116008B9FFF786FFBF49B948B7
:100B200003F04CFC0028F1D00121B64803F043FB50
:100B30004FF48050B649086007E0B5490868411E87
:100B4000B34A116008B9FFF76FFFB249AD4803F02F
:100B500013FC0028F1D0AC480088C1B20122A9489A
:100B600003F07FFB2088022855DA4FF48050A84913
:100B7000086007E0A6490868411EA54A116008B947
:100B8000FFF752FFA549891E9E4803F017FC002875
:100B9000F0D000219B4803F026FBFFF749FF99485E
:100BA000183000880121974803F011FBFFF73EFF42
:100BB0004FF480509649086007E095490868411E47
:100BC000934A116008B9FFF72FFF94493C318D48D3
:100BD00003F0F4FB0028F0D08A4803F03EFB3070AD
:100BE0002088401E20804FF480508949086007E02B
:100BF00087490868411E864A116008B9FFF714FF4B
:100C00008048008800F400700028F1D101217D485F
:100C100003F0E9FA20E04FF480507D49086007E0D6
:100C20007B490868411E7A4A116008B9FFF7FCFE4B
:100C30007849491C734803F09FFB0028F0D02188B5
:100C40000122304600F07EFB01216E4803F0A7FA36
:100C50000121734802F06FFF002070BD70B5064699
:100C60000C4615466F4805604FF4204068490860FF
:100C700007E067490868411E654A116008B9FFF737
:100C8000D3FE4FF400315F4803F098FB0028F0D109
:100C900001215C4803F08FFA4FF480505C490860F2
:100CA00007E05B490868411E594A116008B9FFF71F
:100CB000BBFE5849534803F05FFB0028F1D04FF4C6
:100CC00080505349086050480088C1B200224D4806
:100CD00003F0C7FA4FF480504D49086007E04C49D3
:100CE0000868411E4A4A116008B9FFF79DFE4A494B
:100CF000444803F041FB0028F1D0210A414803F0A9
:100D0000AAFA4FF480504249086007E04049086859
:100D1000411E3F4A116008B9FFF786FE3E49891C13
:100D2000384803F029FB0028F0D0E1B2354803F041
:100D300092FA4FF480503649086007E03449086859
:100D4000411E334A116008B9FFF76EFE3249891C13
:100D50002C4803F011FB0028F0D0297800223046FF
:100D600000F0F0FA01212E48143802F0E4FE0020D1
:100D700070BD1CB50020019000904FF42040244924
:100D8000086007E022490868411E214A116008B93D
:100D9000FFF74AFE4FF400311A4803F00FFB00281A
:100DA000F0D164E00121174803F005FA4FF48050B8
:100DB0001749086007E016490868411E144A116087
:100DC00008B9FFF731FE13490E4803F0D5FA0028A1
:100DD000F1D00D480088C1B200220A4803F041FA60
:100DE0004FF420400A49086000BF064814300088CC
:100DF000019007490868411E054A1160B0B913E027
:100E0000E0930400005400405000002058000020EF
:100E100054000020010003008200070004000010BD
:100E2000800002405C000020FFF7FEFDBDF80400DA
:100E300040F2024108400028D7D0BDF8040000F07D
:100E4000020040B1DD4800880121DC48183803F079
:100E5000BEF900201CBDDA49D848183803F0CBFA97
:100E60000098411C0091962801D1FFF7DDFD99E71C
:100E70002DE9F04780460E4614464FF00009002742
:100E80000025AA463046F11706EB5171C910A6EBB2
:100E9000C1011FFA81FACAF10800C5B22046E11764
:100EA00004EB5171C1F3C709E11704EB5171C9108B
:100EB000A4EBC101CFB2BAF1000F65D1B9F1000FB7
:100EC0001BD1C0480770024631464046FFF7C6FEB8
:100ED0004FF42040BC49086008E0BB490868411E47
:100EE000B94A116008B9FFF79FFD00BFB548007807
:100EF0000028F2DCFFF73DFF14E120E00820B149B3
:100F000008700A4631464046FFF7A8FE4FF42040DD
:100F1000AD49086008E0AC490868411EAA4A116062
:100F200008B9FFF781FD00BFA64800780028F2DC71
:100F3000FFF71FFF06F1080086B208F108085FEA14
:100F40000900A9F1010101F0FF09D7D1002FD3D089
:100F50009C480770024631464046FFF77FFE4FF43B
:100F600020409949086008E097490868411E964A60
:100F7000116008B9FFF758FD00BF924800780028BB
:100F8000F2DCFFF7F6FECDE0B9F1000F57D1AC422D
:100F900039DD8C480570024631464046FFF75EFE5B
:100FA0004FF420408849086008E087490868411EDE
:100FB000854A116008B9FFF737FD00BF8148007806
:100FC0000028F2DCFFF7D5FE601B7E49087072191D
:100FD00091B208EB05007B4AFFF740FE4FF420403A
:100FE0007949086008E078490868411E764A11602E
:100FF00008B9FFF719FD00BF724800780028F2DC3D
:10100000FFF7B7FE8EE06F48077002463146404654
:10101000FFF724FE4FF420406B49086008E06A495E
:101020000868411E684A116008B9FFF7FDFC00BF5F
:10103000644800780028F2DCFFF79BFE72E0601B3A
:1010400084B22046E11704EB5171C1F3C709E117DF
:1010500004EB5171C910A4EBC101CFB2EDB15948F5
:101060000570024631464046FFF7F8FD4FF4204038
:101070005549086008E054490868411E524A116009
:1010800008B9FFF7D1FC00BF4E4800780028F2DC19
:10109000FFF76FFE701986B2A84420E00820494986
:1010A00008700A4631464046FFF7D8FD4FF420400D
:1010B0004549086008E044490868411E424A1160F9
:1010C00008B9FFF7B1FC00BF3E4800780028F2DC09
:1010D000FFF74FFE06F1080086B208F108085FEA44
:1010E0000900A9F1010101F0FF09D7D1D7B13548B5
:1010F0000770024631464046FFF7B0FD4FF42040EE
:101100003149086008E030490868411E2E4A1160E4
:1011100008B9FFF789FC00BF2A4800780028F2DCF4
:10112000FFF727FEBDE8F08710B54FF4001002F07E
:101130001DFD48B30021254802F0FDFC4FF480104E
:1011400002F028FD4FF420401F49086007E01E49C7
:101150000868411E1C4A116008B9FFF765FC1C496C
:101160001648183803F02AF90028F0D00121134856
:10117000183803F02CF81148001F00880F48008829
:10118000002014490968087010BD10B54FF00070B8
:1011900002F0ECFC88B101210848183803F017F878
:1011A00000210A48143002F0C6FC4FF0807002F0B3
:1011B000F1FC002008490968088010BD185400405F
:1011C0000004001060000020540000206C00024069
:1011D000040000105C000020580000201CB5002115
:1011E000664802F0C4FF654802F02AFF00214FF470
:1011F000001001F0FCF94020ADF8040004208DF847
:10120000070001A95E4800F029FF8020ADF8040026
:1012100001A95B4800F022FF10208DF8000000209B
:101220008DF801008DF802008DF80300684602F089
:101230004CFB11208DF8000000208DF801008DF886
:101240000200684602F041FB00214E4802F073FCA8
:1012500000214C48143002F06EFC4A4802F09EFB1C
:101260004848143002F09AFB1CBD1CB5012108202F
:1012700001F0B0F90121480501F0B9F94020ADF8BD
:10128000040003208DF806001C208DF8070001A93A
:101290003B4800F0E3FE8020ADF8040001A9384887
:1012A00000F0DCFE10208DF8000000208DF8010019
:1012B0008DF8020001208DF80300684602F005FB5E
:1012C00011208DF8000000208DF801008DF802003B
:1012D000684602F0FAFA0121084601F06EF9294841
:1012E00002F05CFB25481030274908600020486068
:1012F000102088604FF6FF70C860002008618020D1
:10130000486100208861C86108624FF4405048621B
:10131000002088621B4802F0E3FB1A48143002F0F8
:101320003DFB19491748143002F0DAFB0122022173
:10133000144802F00CFC012202211248143002F081
:1013400006FC1CBD70B504460D46164656B90E483F
:10135000446010200C4988600846C560094802F0C6
:10136000BFFB0AE00848446000200749886008463F
:10137000C5600448143002F0B3FB70BD0054004057
:10138000000C01406C000240BC0D002070B504460A
:101390000E4626B11021F84800F00DFF03E01021A1
:1013A000F54800F00AFF0421F34800F006FF00258D
:1013B00017E02021F04800F000FF04F0800020B189
:1013C0008021ED4800F0F7FE03E08021EA4800F0BC
:1013D000F4FE2021E84800F0EEFE6006040E681CD2
:1013E000C5B2082DE5DB0421E34800F0E4FE10213E
:1013F000E14800F0E0FE70BD70B504460D4605F111
:10140000B001C8B20021FFF7C1FF102141EA14105A
:101410000021FFF7BBFF04F00F0141F001000021A4
:10142000FFF7B4FF70BD10B500218D20FFF7AEFFB0
:1014300000211420FFF7AAFF0021AF20FFF7A6FF2D
:1014400010BD10B500218D20FFF7A0FF0021102056
:10145000FFF79CFF0021AE20FFF798FF10BD70B58D
:10146000002419E004F1B001C8B20021FFF78EFF9B
:1014700000210846FFF78AFF00211020FFF786FFB2
:10148000002505E001210020FFF780FF681CC5B2A0
:10149000802DF7DB601CC4B2082CE3DB70BD2DE9A6
:1014A000F04107460E46904600250024A8F1200092
:1014B000C5B27F2F02DD0027B01CC6B231463846C8
:1014C000FFF79AFF002408E004EB0511AB4A505CDB
:1014D0000121FFF75BFF601CC4B2082CF4DB701C19
:1014E000C1B23846FFF788FF002409E004EB05117C
:1014F0000831A24A505C0121FFF748FF601CC4B2CA
:10150000082CF3DBBDE8F08110B50246012000E0B5
:1015100050430B00A1F10104E1B2F9D110BD2DE956
:10152000FF5F074691461D460E9E4FF0000A0024BD
:1015300033E0281B401EC1B20A20FFF7E5FFB9FBCC
:10154000F0F00A21B0FBF1F201FB1208BAF1000F32
:1015500013D1681EA04210DDB8F1000F0BD1B346C5
:1015600006EBDB71491001FB0471C8B2202201991E
:10157000FFF795FF0FE04FF0010AB34606EBDB7172
:10158000491001FB0471C8B208F13001CAB20199D7
:10159000FFF785FF00BF601CC4B2AC42C9DBBDE8E9
:1015A000FF9F2DE9F04104460F46154600260EE048
:1015B000AA5D39462046FFF772FF04F10800C4B265
:1015C000782C02DD0024B81CC7B2701CC6B2A85D1E
:1015D0000028EDD1BDE8F0812DE9F04180460E46AE
:1015E0001546002731464046FFF706FF00240AE073
:1015F000634A02EB8511085D0121FFF7C7FE781CE5
:10160000C7B2601CC4B2102CF2DB701CC1B24046E1
:10161000FFF7F2FE00240CE06900491C584A02EB77
:101620004111085D0121FFF7B1FE781CC7B2601CB3
:10163000C4B2102CF0DBBDE8F0812DE9F04180460A
:101640000E461546002731464046FFF7D5FE0024DA
:101650000CE06900C1EB01114A4A1144085D012107
:10166000FFF794FE781CC7B2601CC4B20F2CF0DBED
:10167000701CC1B24046FFF7BFFE00240DE06900B8
:10168000491CC1EB01113F4A1144085D0121FFF7DC
:101690007DFE781CC7B2601CC4B20F2CEFDBBDE826
:1016A000F0812DE9F04180460E461546002731466F
:1016B0004046FFF7A1FE00240CE005EB4501324A4D
:1016C00002EB8111085D0121FFF760FE781CC7B2B3
:1016D000601CC4B2202CF0DB701CC1B24046FFF786
:1016E0008BFE00240EE005EB45014900491C264A0B
:1016F00002EB4111085D0121FFF748FE781CC7B2DB
:10170000601CC4B2202CEEDBB01CC1B24046FFF717
:1017100073FE00240EE005EB45014900891C1A4ABE
:1017200002EB4111085D0121FFF730FE781CC7B2C2
:10173000601CC4B2202CEEDBF01CC1B24046FFF7A7
:101740005BFE00240EE005EB45014900C91C0E4A72
:1017500002EB4111085D0121FFF718FE781CC7B2AA
:10176000601CC4B2202CEEDB301DC1B24046FFF736
:1017700043FE002419E0000000080140A25D0008BB
:1017800061000020210B00202102002005EB450113
:101790004900091D864A02EB4111085D0121FFF74E
:1017A000F5FD781CC7B2601CC4B2202CEEDB701DA6
:1017B000C1B24046FFF720FE00240EE005EB4501D4
:1017C0004900491D7A4A02EB4111085D0121FFF7EA
:1017D000DDFD781CC7B2601CC4B2202CEEDBBDE876
:1017E000F0812DE9F05F06460F4690461C46DDF875
:1017F00028A04FF0000BE11704EB5171C910A4EBC6
:10180000C10131B92046E11704EB5171C1F3C7059D
:1018100006E02046E11704EB5171C910491CCDB216
:101820003D4615E029463046FFF7E6FDB1460BE0A0
:1018300059460BF1010B1AF801000121FFF7A6FD33
:1018400009F1010000F0FF09C145F1DB681CC5B2D8
:10185000A542E7DBBDE8F09F08B501210C2000F0B0
:10186000B9FEBC20ADF8000010208DF80300032065
:101870008DF8020069464F4800F0F0FBBC214D484E
:1018800000F099FC08214B4800F095FC642000F022
:10189000D0F80821474800F090FC642000F0C9F817
:1018A0000821444800F087FC0021FD20FFF76EFD71
:1018B00000211220FFF76AFD0021AE20FFF766FD30
:1018C0000021D520FFF762FD0021A020FFF75EFD7B
:1018D0000021A820FFF75AFD00213F20FFF756FD09
:1018E0000021D320FFF752FD00210846FFF74EFDEF
:1018F00000214020FFF74AFD0021A120FFF746FD0F
:101900000021C820FFF742FD0021DA20FFF73EFD4D
:1019100000210220FFF73AFD00210846FFF736FDBF
:101920000021D520FFF732FD00218020FFF72EFD9A
:101930000021D920FFF72AFD0021F120FFF726FD25
:101940000021DA20FFF722FD00211220FFF71EFD03
:1019500000218120FFF71AFD00217F20FFF716FDEF
:101960000021D920FFF712FD00212520FFF70EFDF1
:101970000021DB20FFF70AFD00213420FFF706FDE0
:101980000021A420FFF702FD0021A620FFF7FEFCA6
:101990000021AF20FFF7FAFC0021AF20FFF7F6FC93
:1019A000FFF75DFD00210846FFF726FD08BD00009A
:1019B000210200200008014010B56FF0040001F082
:1019C000CEFF2E4800682E49B0FBF1F02D4908707B
:1019D0000846007800EB4001C1EBC0104FF6FF71E4
:1019E00001EAC0002849088010BD0146254A127846
:1019F0004A434FF0E0235A6100229A611A46126965
:101A000042F001021A6100BF4FF0E022106900F0BD
:101A100001021AB100F48032002AF5D04FF0E02222
:101A2000126922F001024FF0E0231A6100229A614C
:101A300070470146144A12884A434FF0E0235A6126
:101A400000229A611A46126942F001021A6100BF2F
:101A50004FF0E022106900F001021AB100F4803268
:101A6000002AF5D04FF0E022126922F001024FF077
:101A7000E0231A6100229A617047000018000020DC
:101A800000127A00300C0020320C002008B5012131
:101A90000D2000F09FFD0121244800F0B0FB4FF421
:101AA0007C40ADF8000003208DF8020014208DF872
:101AB000030069461E4800F0D1FA4FF48170ADF87A
:101AC000000003208DF8020014208DF80300694601
:101AD000184800F0C3FA4FF44E70ADF80000032030
:101AE0008DF8020010208DF803006946104800F0C0
:101AF000B5FA4FF40040ADF8000003208DF8020065
:101B000010208DF8030069460A4800F0A7FA022069
:101B1000ADF8000003208DF8020004208DF80300CA
:101B20006946044800F09AFA08BD0000000230003F
:101B3000000C014000080140DC480068DC490968ED
:101B40000884DA484068DA4909684884704710B563
:101B5000D74800680088012804D10102D54800F068
:101B60002AFB04E04FF48071D24800F026FBD048F5
:101B700000684088012804D14102CE4800F01BFBD8
:101B800004E04FF40071CB4800F017FBC848006830
:101B90008088012804D11021C64800F00CFB03E026
:101BA0001021C44800F009FBC1480068C088012822
:101BB00004D10821BF4800F0FEFA03E00821BD4827
:101BC00000F0FBFABA4800680089012804D12021FE
:101BD000B84800F0F0FA03E02021B64800F0EDFA32
:101BE000B34800684089012804D1C103B24800F01D
:101BF000E2FA04E04FF40041AF4800F0DEFA10BD15
:101C000010B50221AC4800F0BCFA88B9AB480068B6
:101C100070B90120FFF70DFF0221A74800F0B1FACB
:101C200030B94FF4FA70A54908600120A449087042
:101C3000A3480078012813D10020A1490870A148C9
:101C40000088072805DA9F480088401C9D490880C5
:101C500002E000209B49088042F210709A49086017
:101C600010BD9948006820B99648008890490968D5
:101C70000886704770B594480068B0F5FA7F07D2BF
:101C80009148006820B1FFF7EAFB00208E49086008
:101C90008E480088B0F57A7F00D070BD00208B4957
:101CA000088089480068002875D1804800680028AD
:101CB00008DA082204210020FFF7BFFC7B480068F7
:101CC000444201E07948046878480068642190FB48
:101CD000F1F0C5B22A4602211020FFF7E2FC73485A
:101CE0000068642190FBF1F201FB12000A2190FBD5
:101CF000F1F0C5B22A4602213020FFF7D2FC0722BC
:101D000006215020FFF799FC68480068642190FB89
:101D1000F1F201FB12000A2190FBF1F201FB12002B
:101D2000C5B22A4602216020FFF7BBFC604800686C
:101D30000088012805D1012200210846FFF77DFC1B
:101D400004E0062200210846FFF777FC58480068A7
:101D5000408E012805D1652200211020FFF79FFB4E
:101D60000EE053480068408E28B168220021102000
:101D7000FFF795FB04E0062200211020FFF75DFC31
:101D80004B4800684088012806D1022200211C200F
:101D9000FFF753FC05E045E0062200211C20FFF779
:101DA0004CFC434800688088012805D103220021AB
:101DB0003020FFF742FC04E0062200213020FFF72C
:101DC0003CFC3B480068C088012805D10422002162
:101DD0004420FFF732FC04E0062200214420FFF7F4
:101DE0002CFC334800680089012805D10522002118
:101DF0005820FFF722FC04E0062200215820FFF7BC
:101E00001CFC2B4800684089012805D1002211469E
:101E10006C20FFF712FC3BE0062200216C20FFF74C
:101E20000CFC35E02748008807282FD2DFE800F0B7
:101E3000040A10161C22280025A200210846FFF7DC
:101E4000B0FB24E027A200210846FFF7AAFB1EE012
:101E500029A200210846FFF7A4FB18E02BA20021CD
:101E60000846FFF79EFB12E02DA200210846FFF76F
:101E700098FB0CE02FA200210846FFF792FB06E03A
:101E800031A200210846FFF78CFB00E000BF00BF35
:101E900000BF02E710B5FFF75AFEFFF74DFEFFF750
:101EA000AFFEFFF7DEFEFFF7E5FE10BD40000020AD
:101EB000340C0020000C014000080140380C0020C8
:101EC000400C0020460C00203C0C0020420C00205E
:101ED000436F6F6C696E675F533C3C3C3C3C3C3CE1
:101EE00000000000436F6F6C696E675F453C3C3CCF
:101EF0003C3C3C3C00000000436F6F6C696E675FC8
:101F0000483C3C3C3C3C3C3C000000004465667264
:101F10006F73743C3C3C3C3C3C3C3C3C000000004F
:101F2000436F6D70636C6F73653C3C3C3C3C3C3C68
:101F300000000000546F66663C3C3C3C3C3C3C3C32
:101F40003C3C3C3C000000006175746F3C3C3C3CF8
:101F50003C3C3C3C3C3C3C3C000000000948804789
:101F600009480047FEE7FEE7FEE7FEE7FEE7FEE77B
:101F7000FEE7FEE7FEE7FEE704480549054A064B93
:101F800070470000EF040008ED000008680F002013
:101F900068150020681100206811002010B5044663
:101FA000CC48844208D10121042000F02DFB0021FF
:101FB000042000F029FB46E0C748844208D10121F3
:101FC000082000F021FB0021082000F01DFB3AE072
:101FD000C248844208D10121102000F015FB0021E5
:101FE000102000F011FB2EE0BD48844208D10121F1
:101FF000202000F009FB0021202000F005FB22E05A
:10200000B848844208D10121402000F0FDFA0021A7
:10201000402000F0F9FA16E0B348844208D10121CB
:10202000802000F0F1FA0021802000F0EDFA0AE0B3
:10203000AE48844207D10121801500F0E5FA002165
:10204000A01500F0E1FA10BD10B50121084600F01E
:10205000DBFA0021012000F0D7FA10BD2DE9F04194
:10206000024600250026002000230024002791F8C6
:1020700003C00CF00F0591F803C00CF0100CBCF17C
:10208000000F03D091F802C04CEA050591F800C09A
:10209000BCF1000F31D0146800202BE04FF0010C90
:1020A0000CFA00F3B1F800C00CEA03069E4220D1FE
:1020B00083004FF00F0C0CFA03F7BC4305FA03FC46
:1020C0004CEA040491F803C0BCF1280F06D14FF08C
:1020D000010C0CFA00FCC2F814C00AE091F803C02D
:1020E000BCF1480F05D14FF0010C0CFA00FCC2F80E
:1020F00010C0401C0828D1D31460B1F800C0BCF156
:10210000FF0F34DD546800202EE000F1080C4FF082
:10211000010808FA0CF3B1F800C00CEA03069E426D
:1021200021D183004FF00F0C0CFA03F7BC4305FAE2
:1021300003FC4CEA040491F803C0BCF1280F05D15C
:1021400000F1080C08FA0CF8C2F8148091F803C0EA
:10215000BCF1480F07D100F1080C4FF0010808FA54
:102160000CF8C2F81080401C0828CED35460BDE89B
:10217000F0814FF6FF710180022181700421C1704E
:1021800070470246002093680B400BB1012000E02D
:10219000002070470146886880B2704702460020E0
:1021A000D3680B400BB1012000E0002070470146CE
:1021B000C86880B2704701617047416170470AB1D9
:1021C000016100E041617047C16070474FF48032A7
:1021D0000A43826181618261826982697047024635
:1021E0000020434B18684FF68073184040EA0210F5
:1021F00008433F4B186070473E49C8617047F0B5CF
:102200000A46002300240021002500F00046B6F114
:10221000004F02D1364EF16901E0354E7168C0F3CE
:10222000034583B200F44016B6F5401F08D121F0F3
:1022300070612F4E766826F070662D4F7E6012E03A
:1022400000F48016B6F5801F06D1032606FA05F4C1
:10225000A14341F0706106E0460D360103FA06F62F
:10226000B14341F0706122B1460D360103FA06F622
:10227000314300F00046B6F1004F02D11C4EF1612F
:1022800001E01B4E7160F0BD30B500228B071C0FC2
:102290000F2303FA04F2164B08338C1053F8243042
:1022A0009343134C08348D1044F8253023468C108A
:1022B00053F824308C07240F00FA04F423430C4C09
:1022C00008348D1044F8253030BD0A49DC310860EF
:1022D0007047000000080140000C01400010014060
:1022E0000014014000180140001C01400020014082
:1022F0000000014000002042DF48006840F001007B
:10230000DD49086008464068DC490840DA49486011
:1023100008460068DA490840D7490860084600685E
:1023200020F4802008600846406820F4FE004860E1
:102330004FF41F0088607047CF49096821F480314D
:10234000CD4A11601146096821F480211160B0F571
:10235000803F03D0B0F5802F0ED106E0C649096852
:1023600041F48031C44A116007E0C349096841F46F
:10237000A021C14A116000E000BF00BF704710B546
:1023800001460022002300204A11012A02D1BA4C42
:10239000236806E0022A02D1B74C236A01E0B64C5A
:1023A000636A01F01F02012494401C400CB101201B
:1023B00000E0002010BD38B500200090002400256A
:1023C00000BF3120FFF7DBFF05460098401C00905E
:1023D0000098B0F5A06F01D0002DF2D03120FFF7AA
:1023E000CEFF08B1012400E00024204638BD01469C
:1023F0000020A14A106820F0F80040EAC1001060F7
:102400007047A04908607047024600209A4B586800
:1024100020F47C1042EA01031843974B5860704740
:1024200098490866704701460020934A506820F09A
:1024300003000843506070478F48406800F00C006C
:102440007047014600208C4A506820F0F000084395
:102450005060704701460020874A506820F4E060D1
:1024600008435060704701460020834A506820F4BA
:10247000605040EAC1005060704729B17E4A527AEC
:1024800002437D4B5A7204E07B4A527A82437A4B74
:102490005A7270477B49D831086070470146002066
:1024A000754A506820F4404008435060704700214E
:1024B000714A20321170704A82F82010012802D02F
:1024C00004280AD104E001216B4A2032117005E092
:1024D0000521694A2032117000E000BF00BF70473B
:1024E0006949086070476449096A0143624A116298
:1024F0007047654944390860704730B500210022B3
:10250000002400235C4D6D6805F00C0121B1042905
:1025100005D0082923D105E05C4D056022E05B4D24
:1025200005601FE0544D6D6805F47012524D6D68E2
:1025300005F48034022505EB92421CB9544D5543F5
:1025400005600BE04C4D6D6805F400351DB1504D34
:102550005543056002E04D4D5543056002E04B4D8B
:10256000056000BF00BF444D6D6805F0F00109092A
:10257000484D6B5C0568DD4045603F4D6D6805F476
:10258000E061090A434D6B5C4568DD4085603A4D6A
:102590006D6805F46051C90A3E4D6B5C4568DD40CD
:1025A000C560354D6D6805F44041890B3A4D6B5C53
:1025B000C568B5FBF3F5056130BD29B12E4A5269F6
:1025C00002432D4B5A6104E02B4A526982432A4B45
:1025D0005A61704729B1284A92690243264B9A6191
:1025E00004E0254A92698243234B9A61704729B1DE
:1025F000214AD2690243204BDA6104E01E4AD269C3
:1026000082431D4BDA61704729B11B4AD2680243ED
:10261000194BDA6004E0184AD2688243164BDA603C
:10262000704729B1144A12690243134B1A6104E03E
:10263000114A12698243104B1A617047124940399E
:10264000086070470F49C86470470B49C8717047EC
:102650000948406A40F08070074948627047014667
:102660000020054A92680A400AB1012000E00020DB
:102670007047014988727047001002400000FFF85F
:10268000FFFFF6FE000042428004424200127A0040
:1026900000093D00480C0020580C002010B50446ED
:1026A000FE48844208D10121C014FFF7ADFF00218C
:1026B000E014FFF7A9FFC4E0B4F1804F08D1012175
:1026C0000846FFF7AEFF00210120FFF7AAFFB8E0A0
:1026D000F348844208D101210220FFF7A2FF002124
:1026E0000220FFF79EFFACE0EE48844208D10121B2
:1026F0000420FFF796FF00210420FFF792FFA0E0DF
:10270000E948844208D101210820FFF78AFF00210F
:102710000820FFF786FF94E0E448844208D10121B5
:102720001020FFF77EFF00211020FFF77AFF88E0DE
:10273000DF48844208D101212020FFF772FF0021E9
:102740002020FFF76EFF7CE0DA48844208D10121A7
:102750004014FFF759FF00216014FFF755FF70E0A8
:10276000D548844209D10121C804FFF74DFF00215B
:102770004FF40020FFF748FF63E0D048844209D1BE
:1027800001210805FFF740FF00214FF48010FFF7FB
:102790003BFF56E0CA48844209D101214805FFF7B2
:1027A00033FF00214FF40010FFF72EFF49E0C5482A
:1027B000844208D101214020FFF733FF002140204F
:1027C000FFF72FFF3DE0C048844208D1012180205F
:1027D000FFF727FF00218020FFF723FF31E0BB48F0
:1027E000844208D101218015FFF71BFF0021A015AD
:1027F000FFF717FF25E0B648844209D101210804FC
:10280000FFF702FF00214FF48030FFF7FDFE18E0D4
:10281000B048844209D101214804FFF7F5FE0021A8
:102820004FF40030FFF7F0FE0BE0AB48844208D1D4
:1028300001218804FFF7E8FE00214FF48020FFF714
:10284000E3FE10BD00220288944B98420ED0994BB3
:1028500098420BD0B0F1804F08D0914B984205D0F0
:10286000904B984202D0904B984204D14FF68F7310
:102870001A404B881A438D4B984207D08C4B984294
:1028800004D04FF6FF431A40CB881A4302808B884E
:1028900083850B880385814B98420BD0854B9842EA
:1028A00008D08B4B984205D08A4B984202D08A4B75
:1028B000984201D10B7A038601238382704770B559
:1028C000002400220023058C4FF6FE763540058457
:1028D000028C8388048B4FF68F752C40B51E2C40DC
:1028E0000D882C43751E2A400D892A434D882A43A2
:1028F0006A4DA8420BD06F4DA84208D0744DA84233
:1029000005D0744DA84202D0734DA84213D14FF6A2
:10291000F7752A404D892A434FF6FB752A408D886A
:102920002A434FF6FF652B404FF6FF552B408D890C
:102930002B43CD892B4383800483CD8885860284F5
:1029400070BD70B5002400220023058C4FF6EF7691
:1029500035400584028C8388048B48F6FF752C4033
:102960004FF6FF452C400D884FF6FF7606EA052509
:102970002C434FF6DF752A400D8906EA05152A43D8
:102980004D8806EA05152A43444DA84202D0494D18
:10299000A8421DD14FF67F752A404D894FF6FF762C
:1029A00006EA05152A434FF6BF752A408D8806EAC8
:1029B00005152A434FF6FF352B404FF2FF752B408C
:1029C0008D8906EA85052B43CD8906EA85052B43CB
:1029D00083800483CD880587028470BD70B5002490
:1029E00000220023058C4FF6FF6635400584028CDB
:1029F0008388848B4FF68F752C404FF6FC752C40E6
:102A00000D882C434FF6FF552A400D894FF6FF766F
:102A100006EA05252A434D8806EA05252A431F4D67
:102A2000A84202D0234DA8421DD14FF2FF752A4083
:102A30004D894FF6FF7606EA05252A434FF6FF3506
:102A40002A408D8806EA05252A434EF6FF752B405D
:102A50004DF6FF752B408D8906EA05152B43CD8970
:102A600006EA05152B4383808483CD8885870284FD
:102A700070BD70B5002200230024058C4EF6FF7651
:102A800035400584038C8488828B48F6FF752A4084
:102A90004FF6FF452A400D8820E00000002C014041
:102AA0000004004000080040000C004000100040FE
:102AB0000014004000340140004C0140005001402F
:102AC0000054014000180040001C0040002000405D
:102AD0000040014000440140004801404FF6FF76AD
:102AE00006EA05252A434DF6FF752B400D8906EAB7
:102AF00005352B434D8806EA05352B43FA4DA84290
:102B000002D0FA4DA84208D14BF6FF752C408D89B2
:102B10004FF6FF7606EA85152C4384808283CD88A4
:102B2000A0F84050038470BD828B4FF2FF331A40EF
:102B30008283828B4FF6FF7303EA01231A43828359
:102B40007047F0B50C461546002200210026078C80
:102B50004EF6FF7C07EA0C070784828B018C4FF648
:102B6000FF7707EA043640F6FF473A404FF6FF7713
:102B700007EA05273A434FF6FF7707EA03373A4358
:102B8000D94FB8420ED0D94FB8420BD0B0F1804FD8
:102B900008D0D74FB84205D0D64FB84202D0D64F52
:102BA000B84206D14DF6FF77394046F48057394395
:102BB00005E047F6FF57394044F480573943828394
:102BC0000184F0BD828B4FF6F3731A408283828BAF
:102BD0000A4382837047F0B50C4615460022002157
:102BE0000026078C4FF6FF6C07EA0C070784828BE0
:102BF000018C4FF6FF7707EA04264FF60C773A4030
:102C00004FF6FF7707EA03172F433A43B64FB84210
:102C10000ED0B64FB8420BD0B0F1804F08D0B44FB1
:102C2000B84205D0B34FB84202D0B34FB84206D134
:102C30004FF6FF57394046F48077394305E04FF2AD
:102C4000FF57394044F48077394382830184F0BDD3
:102C5000028B4FF2FF331A400283028B4FF6FF7351
:102C600003EA01231A4302837047F0B50C46154668
:102C7000002200210026078C4FF6EF7C07EA0C07A4
:102C80000784028B018C4FF6FF7707EA041640F6A3
:102C9000FF473A404FF6FF7707EA03373A434FF6CC
:102CA000FF7707EA05273A438F4FB8420ED08F4F80
:102CB000B8420BD0B0F1804F08D08D4FB84205D04C
:102CC0008C4FB84202D08C4FB84206D14FF6DF7716
:102CD000394046F01007394305E04FF65F77394039
:102CE00044F01007394302830184F0BD028B4FF694
:102CF000F3731A400283028B0A4302837047F0B5D4
:102D00000C46154600220021068C4FF6FE773E4009
:102D10000684028B018C4FF60C7632407E1C06EA4C
:102D200003162E433243704EB0420ED06F4EB04267
:102D30000BD0B0F1804F08D06D4EB04205D06D4E33
:102D4000B04202D06C4EB04206D14FF6FD76314013
:102D500044F00106314305E04FF6F576314044F08A
:102D60000106314302830184F0BD70B505460C466F
:102D70005D4885420ED05D4885420BD0B5F1804F4D
:102D800008D05B48854205D05A48854202D05A484F
:102D9000854200D100E000BF208850B92389A28875
:102DA00061882846FFF7ABFFE1882846FFF79EFFC2
:102DB00025E0208804280AD12389A2886188284632
:102DC000FFF753FFE1882846FFF742FF17E020880E
:102DD00008280AD12389A28861882846FFF7FBFECC
:102DE000E1882846FFF7EEFE09E02389A288618882
:102DF0002846FFF7A6FEE1882846FFF795FE70BD3E
:102E00002DE9F04105460C4600260127608808B9E7
:102E1000022600E00026A088012801D1022700E058
:102E200001272088A0B92389A28861882846FFF756
:102E300066FFE1882846FFF759FF23893A46314665
:102E40002846FFF712FFE1882846FFF701FF13E04D
:102E50002389A28861882846FFF707FFE188284672
:102E6000FFF7F6FE23893A4631462846FFF747FF2B
:102E7000E1882846FFF73AFFBDE8F0810A884B88D1
:102E80001A438B881A43CB881A430B891A434B8900
:102E90001A438B891A43A0F8442070474FF6FF71FC
:102EA000818000210180C180418001727047002132
:102EB000018041808180C180018141818181C18106
:102EC0007047002101804180012181800021C18063
:102ED000018170470021018041808180C180018192
:102EE0004181818170470000002C01400034014085
:102EF0000004004000080040000C004021B102889E
:102F000042F00102028004E002884FF6FE731A408C
:102F10000280704731B1B0F8442042F40042A0F87A
:102F2000442005E0B0F84420C2F30E02A0F844208B
:102F300070471AB183890B43838102E083898B43F5
:102F4000838170478182704741EA0203A0F84830CC
:102F500070471AB183890B43838102E083898B43D5
:102F60008381704701894FF6F872114001817047E3
:102F70000A46002101894FF68F73194011430181E0
:102F8000704730B504460D4629462046FFF7F0FF4E
:102F9000208940F00700208130BD2DE9F041044632
:102FA0000D4616461F46602D06D13B46012231468E
:102FB0002046FFF75AFE05E03B46012231462046F7
:102FC000FFF79DFE29462046FFF7D2FF208940F0FB
:102FD00007002081BDE8F08130B50C460021018951
:102FE000C9B24FF6FF7505EA03251543254329436A
:102FF000018130BD2DE9F04105460E461746984641
:10300000002443463A4631462846FFF7E5FF2C891F
:103010004FF6F870044044F007044FF68F700440F8
:1030200044F070042C81BDE8F081F0B504460D46F3
:1030300016461F463B46324629462046FFF7CCFF40
:10304000208940F480402081F0BD01858282704754
:103050000A46002101884FF68F7319401143018001
:103060007047F0B50C4615461E460021002200238D
:103070000189028B038C4FF6F877394021434FF6D4
:10308000FC473A4040F201173A434FF6DD773B40A8
:103090004FF6FF7707EA06172F433B430181028370
:1030A0000384F0BD0A460021018B4FF68F7319404F
:1030B0001143018370470A460021018B48F6FF73D4
:1030C00019404FF6FF7303EA022319430183704747
:1030D0000A460021818B4FF68F731940114381837B
:1030E00070470A460021818B48F6FF7319404FF65E
:1030F000FF7303EA022319438183704721B10288D9
:1031000042F08002028004E002884FF67F731A408A
:103110000280704721B1828842F00402828004E07C
:1031200082884FF6FB731A408280704721B18288F3
:1031300042F00802828004E082884FF6F7731A405A
:103140008280704721B1828842F00102828004E0CF
:1031500082884FF6FE731A40828070470A4600212B
:10316000018B4FF6F77319401143018370470A46EC
:103170000021018B4FF2FF7319404FF6FF7303EAF2
:1031800002231943018370470A460021818B4FF6C1
:10319000F77319401143818370470A460021818BE0
:1031A0004FF2FF7319404FF6FF7303EA02231943EE
:1031B000818370470A460021018B4FF6FB7319404B
:1031C0001143018370470A460021018B4FF6FF33FC
:1031D00019404FF6FF7303EA022319430183704736
:1031E0000A460021818B4FF6FB73194011438183FE
:1031F00070470A460021818B4FF6FF3319404FF686
:10320000FF7303EA02231943818370470A460021B2
:10321000018B4FF67F7319401143018370470A46B3
:103220000021018BC1F30E014FF6FF7303EA022365
:103230001943018370470A460021818B4FF67F7343
:1032400019401143818370470A460021818BC1F3E5
:103250000E014FF6FF7303EA02231943818370477F
:103260000A460021018C4FF6FD7319401143018479
:1032700070470A460021018C4FF6F773194011433D
:10328000018470470A460021018C4FF6DF73194014
:103290004FF6FF7303EA02131943018470470A468D
:1032A0000021018C4FF67F7319404FF6FF7303EA3C
:1032B00002131943018470470A460021018C4FF61E
:1032C000FF5319404FF6FF7303EA022319430184A9
:1032D00070470A460021018C4FF2FF7319404FF6E8
:1032E000FF7303EA02231943018470470A46002151
:1032F000018C4DF6FF7319404FF6FF7303EA02335A
:1033000019430184704730B5002301248C40A3B2D7
:10331000048C9C430484048C02FA01F5ADB22C4366
:10332000048430BD30B5002304248C40A3B2048C47
:103330009C430484048C02FA01F5ADB22C4304844E
:1033400030BD70B503460020002418461830012512
:103350008D40ACB21D8CA5431D8409B1082909D14B
:1033600000EB6100056825F07005056005681543F0
:1033700005600EE00D1FC5F34E052844056825F4D1
:10338000E045056005684FF6FF7606EA02263543FC
:10339000056070BD21B1028842F00202028004E0A3
:1033A00002884FF6FD731A400280704721B10288EF
:1033B00042F00402028004E002884FF6FB731A40D8
:1033C0000280704721B1828842F08002828004E04E
:1033D00082884FF67F731A408280704702884FF6CA
:1033E000F7731A40028002880A430280704782887D
:1033F0004FF68F731A40828082880A43828070471A
:1034000002894FF6F8731A40028102890A43028149
:10341000704702894FF67F731A40028102890A437E
:10342000028170478184704781857047818670472B
:103430000187704781877047A0F840107047028865
:103440004FF6FF431A40028002880A430280704709
:103450000146888E70470146088F70470146888F65
:1034600070470146B1F8400070470146888C7047AC
:103470000146088D704702460020138A0B400BB1AD
:10348000012000E000207047CA430282704730B537
:103490000246002000230024158A05EA01039589CD
:1034A00005EA010413B10CB1012000E0002030BD99
:1034B000CA4302827047000010B50446FB488442AC
:1034C00009D101218803FFF79FF800214FF48040C4
:1034D000FFF79AF832E0F648844209D10121480406
:1034E000FFF79FF800214FF40030FFF79AF825E02E
:1034F000F048844209D101218804FFF792F80021A5
:103500004FF48020FFF78DF818E0EB48844209D192
:103510000121C804FFF785F800214FF40020FFF7D0
:1035200080F80BE0E548844208D101210805FFF747
:1035300078F800214FF48010FFF773F810BD2DE9E3
:10354000F04786B005460E460024A24600BFA146BD
:103550000027B08900B100BF2F462C8A4CF6FF70BF
:103560000440F08804432C82AC894EF6F3100440EA
:10357000B08831890843718908430443AC81AC8A1F
:103580004FF6FF400440B0890443AC8201A8FEF727
:10359000B4FFC648874202D1DDF810A001E0DDF893
:1035A0000CA0A88900F4004040B10AEBCA0000EB6F
:1035B0000A1031684900B0FBF1F807E00AEBCA00D5
:1035C00000EB0A1031688900B0FBF1F86420B8FB09
:1035D000F0F004012009642101FB1089A88900F49E
:1035E000004040B1322000EBC900B0FBF1F000F028
:1035F0000700044308E0322000EB09106421B0FB0F
:10360000F1F000F00F0004432C8106B0BDE8F08714
:103610004FF41651016000218180C18001810C218D
:10362000418100218181704710B502460020108A37
:103630004FF2FF0318400B884C8823438C882343A8
:10364000CC8823431843108210BD002101804180A3
:103650008180C180704721B1828942F40052828109
:1036600004E082894DF6FF731A4082817047F0B5FD
:103670000346002400260025002040F66A17B942C0
:1036800000D100BF1846C1F3421401F01F06012704
:1036900007FA06F5012C01D10C3004E0022C01D10F
:1036A000103000E014301AB107682F43076002E0C1
:1036B0000768AF430760F0BD1AB1838A0B4383826A
:1036C00002E0838A8B4383827047028A4FF6F0734D
:1036D0001A400282028A0A430282704782894FF2AC
:1036E000FF731A40828182890A438281704721B127
:1036F000828942F00202828104E082894FF6FD73E2
:103700001A4082817047028A4FF6DF731A400282A4
:10371000028A0A430282704721B1028A42F480423F
:10372000028204E0028A4BF6FF731A40028270475D
:10373000C1F308028280704701468888C0F3080000
:103740007047818941F0010181817047028BD2B2BB
:103750000283028B42EA012202837047028B02F449
:103760007F420283028B0A430283704721B1828A1F
:1037700042F02002828204E0828A4FF6DF731A4010
:103780008282704721B1828A42F01002828204E074
:10379000828A4FF6EF731A408282704721B1828A83
:1037A00042F00802828204E0828A4FF6F7731A40E0
:1037B0008282704721B1828942F40042828103E013
:1037C0008289C2F30E028281704721B1828A42F45B
:1037D0000062828204E0828A4FF2FF731A40828282
:1037E0007047828A4FF6FB731A408282828A0A43AC
:1037F0008282704721B1828A42F00202828204E012
:10380000828A4FF6FD731A4082827047024600207A
:10381000B1F5007F00D100BF13880B400BB1012030
:1038200000E00020704701F40072B2F5007F00D183
:1038300000BFCA430280704770B5024600240023CF
:103840000025002040F66A16B14200D100BFC1F346
:10385000421501F01F03012606FA03F3012D02D1E0
:103860009689334006E0022D02D1168A334001E0EA
:10387000968A33400C12012606FA04F41688344066
:1038800013B10CB1012000E0002070BD10B5002282
:10389000002340F66A14A14200D100BF0A1201249D
:1038A0009440A3B2DC43048010BD00000038014006
:1038B0000044004000480040004C004000500040E0
:1038C00031490143314A1160704770B5002100232E
:1038D0000F22C47804B32D4C246804F4E064C4F5CA
:1038E000E064210AC1F10403CA40447804FA03F1F8
:1038F0008478144021430901254C0678A1550478A9
:1039000004F01F050124AC4005786D11AD0005F1F0
:10391000E025C5F8004109E0047804F01F05012402
:10392000AC401C4D0678761145F8264070BD1A4A09
:103930000A400243154B1B1F1A60704739B1134AE6
:10394000121D12680243114B1B1D1A6006E00F4A3C
:10395000121D126882430D4B1B1D1A60704704280C
:1039600008D14FF0E021096941F004014FF0E02255
:10397000116107E04FF0E021096921F004014FF0E7
:10398000E0221161704700000000FA050CED00E034
:1039900000E400E080E100E080FFFF1F01684FF6D7
:1039A000FE72114001600021016041608160C160D0
:1039B0008D49884208D18C490839496841F00F0186
:1039C000894A083A51608AE087491431884208D10F
:1039D00085490839496841F0F001834A083A516045
:1039E0007DE081492831884208D17F4908394968FA
:1039F00041F470617C4A083A516070E07A493C3188
:103A0000884208D178490839496841F47041764ABA
:103A1000083A516063E074495031884208D17249D4
:103A20000839496841F470216F4A083A516056E0FC
:103A30006D496431884208D16B490839496841F4BD
:103A40007001694A083A516049E067497831884213
:103A500008D165490839496841F07061624A083AFD
:103A600051603CE06149884206D1011F096841F07C
:103A70000F01021F116032E05C491431884208D105
:103A80005A49091F096841F0F001584A121F116094
:103A900025E056492831884208D15449091F096850
:103AA00041F47061514A121F116018E04F493C31D6
:103AB000884208D14D49091F096841F470414B4AB9
:103AC000121F11600BE049495031884207D1474924
:103AD000091F096841F47021444A121F11607047A0
:103AE00010B50022026847F6F0739A430C6A8B689F
:103AF00023430C6923434C6923438C692343CC69DA
:103B000023434C6A23438C6A23431A430260CB68E5
:103B100043600B6883604B68C36010BD0021016087
:103B200041608160C160016141618161C161016287
:103B300041628162704721B1026842F00102026075
:103B400004E002684FF6FE731A40026070471AB133
:103B500003680B43036002E003688B430360704714
:103B6000416070470146486880B2704701460020B6
:103B7000002201F080531BB11C4B083B1A6802E085
:103B8000194B083B1A6802EA01030BB1012000E05F
:103B90000020704700F0805119B11449091F0860D6
:103BA00002E01149083948607047014600200022B0
:103BB00001F080531BB10D4B083B1A6802E00A4B21
:103BC000083B1A6802EA01030BB1012000E0002063
:103BD000704700F0805119B10449091F086002E0E4
:103BE0000149083948607047080002400804024053
:103BF00010B50446FA48844208D101214015FEF769
:103C000003FD00216015FEF7FFFC17E0F548844234
:103C100008D101210015FEF7F7FC00212015FEF761
:103C2000F3FC0BE0F048844208D10121C803FEF701
:103C3000EBFC00214FF40040FEF7E6FC10BD30B570
:103C40000246002000235068E84C20400D790C68A3
:103C500044EA0524204350609068E54C2040D1E9B7
:103C600002542C434D7944EA450420439060D06AC5
:103C700020F470000C7C641EE4B2234340EA03503D
:103C8000D06230BD00210160017141718160C1606D
:103C900001210174704721B1826842F00102826003
:103CA00003E0826822F001028260704721B18268DD
:103CB00042F48072826003E0826822F48072826043
:103CC000704710B50023CBB21AB144681C4344605E
:103CD00002E044689C43446010BD816841F00801E3
:103CE00081607047014600208A6802F008020AB12C
:103CF000012000E000207047816841F004018160EC
:103D00007047014600208A6802F004020AB10120CF
:103D100000E00020704721B1826842F4A002826076
:103D200003E0826822F4A00282607047014600200E
:103D30008A6802F480020AB1012000E00020704786
:103D400010B50A4600210023416821F46041531E4A
:103D500041EA4331416010BD21B1426842F4006242
:103D6000426003E0426822F4006242607047F0B5AE
:103D700004460D4600200021092D11DDE068A5F163
:103D80000A0606EB4607072606FA07F18843A5F15F
:103D90000A0606EB460603FA06F10843E0600CE06B
:103DA000206905EB4507072606FA07F1884305EB6E
:103DB000450603FA06F108432061072A0FDA606B13
:103DC000561E06EB86071F2606FA07F18843561E85
:103DD00006EB860605FA06F10843606322E00D2A29
:103DE0000FDA206BD61F06EB86071F2606FA07F1AF
:103DF0008843D61F06EB860605FA06F108432063C2
:103E000010E0E06AA2F10D0606EB86071F2606FA0F
:103E100007F18843A2F10D0606EB860605FA06F1C6
:103E20000843E062F0BD21B1826842F480128260F2
:103E300003E0826822F48012826070470146C86CF9
:103E400080B2704766484C300068704721B14268C4
:103E500042F48062426003E0426822F48062426081
:103E6000704721B1426842F48052426003E04268E8
:103E700022F48052426070470A460021816821F492
:103E8000E04111438160704721B1826842F40042F1
:103E9000826003E0826822F400428260704721B1B0
:103EA000826842F40212826003E0826822F4021205
:103EB00082607047014600208A6802F400120AB14D
:103EC000012000E000207047F0B5044615460020B0
:103ED00000220026092911DDE068A1F10A0707EB9D
:103EE000470C072707FA0CF29043A1F10A0707EBEA
:103EF000470703FA07F21043E0600CE0206901EB8A
:103F0000410C072707FA0CF2904301EB410703FA33
:103F100007F210432061A06BC0F30156EF1C06F1BD
:103F2000010CA7EB0C0707EB870C1F2707FA0CF215
:103F30009043EF1C06F1010CA7EB0C0707EB87077A
:103F400001FA07F21043A063F0BD10B50A46002144
:103F50000023816B21F44011531E41EA0351816318
:103F600010BD08B5002300930090009B0B44009304
:103F7000009B1A6008BD08B5024600200090009220
:103F800001F12800009B184400900098006880B25E
:103F900008BD0A4600214168164B19401143416093
:103FA00070474162826270470A460021416821F0F1
:103FB0001F0111434160704740B109490831096848
:103FC00041F40001064A0832116007E00449083153
:103FD000096821F40001024A0832116070470000AC
:103FE0000024014000280140003C0140FFFEF0FF9A
:103FF000FDF7F1FFFFFD3FFF0246002013680B4075
:104000000BB1012000E000207047CA4302607047F6
:1040100070B502460020002300240B125568CEB272
:1040200005EA060415681D4015B10CB1012000E039
:10403000002070BD00220A12D343036070470000C5
:1040400010B50446F748844209D101214805FEF71E
:10405000E8FA00214FF40010FEF7E3FA08E001212E
:104060008805FEF7DEFA00214FF48000FEF7D9FA4A
:1040700010BD2DE9F04385B004460D460026B1463B
:104080000427DFF8A483A6884FF6C0700640684670
:10409000FEF733FADDF80880E448B8FBF0F01FFAC9
:1040A00080F946EA0906A68020884FF6FE7108408E
:1040B00020800026DE49286888420CD82868400005
:1040C000B8FBF0F087B2042F00DA04273E4309F171
:1040D0000100208427E0E8884BF6FF71884206D172
:1040E000286800EB4000B8FBF0F087B209E02868D0
:1040F00000EBC00101EB0010B8FBF0F087B247F411
:104100008047C7F30B0008B947F0010747F40040A8
:1041100006434FF4967009FB00F04FF47A7190FB60
:10412000F1F0401C2084A683208840F0010020800C
:1041300026884FF6F5300640A8886989084306436B
:104140002680A88929890843208105B0BDE8F0832D
:1041500041F288310160002181804BF6FF71C180FE
:104160000021018141814FF480418181704721B15B
:10417000028842F00102028004E002884FF6FE73DA
:104180001A400280704721B1828842F40062828026
:1041900004E082884FF2FF731A408280704721B199
:1041A000828842F48052828004E082884EF6FF7357
:1041B0001A408280704721B1028842F480720280E6
:1041C00004E002884FF6FF631A400280704721B175
:1041D000028842F40072028004E002884FF6FF5326
:1041E0001A400280704721B1028842F48062028046
:1041F00004E002884FF6FF331A40028070470A46F7
:10420000002181894FF60173194002F0FE03194322
:104210008181704721B1828942F00102828104E0EC
:1042200082894FF6FE731A408281704721B102885D
:1042300042F04002028004E002884FF6BF731A4049
:10424000028070471AB183880B43838002E0838821
:104250008B4383807047018270470146088AC0B251
:10426000704712B141F0010102E04FF6FE731940B0
:104270000182704708B50246002000900092009825
:10428000084400900098008808BD21B1028842F4DB
:104290000042028003E00288C2F30E0202807047EF
:1042A000B1F5006F04D1028842F40062028004E09C
:1042B00002884FF2FF731A4002807047B1F5005F29
:1042C00004D1028842F40052028004E002884DF6D4
:1042D000FF731A400280704721B1028842F4805275
:1042E000028004E002884EF6FF731A400280704795
:1042F000B1F5006F04D1028842F40062028004E04C
:1043000002884FF2FF731A400280704721B1028881
:1043100042F02002028004E002884FF6DF731A4068
:10432000028070470146088B0012704721B1028855
:1043300042F01002028004E002884FF6EF731A4048
:104340000280704721B9028842F08002028004E0B6
:1043500002884FF67F731A4002807047B1F5804F94
:1043600005D0828B4BF6FF731A40828303E0828B69
:1043700042F480428283704770B5024600240025D3
:1043800000230020958A138B1B0445EA030626F0C0
:104390007F4404EA01068E4201D1012000E00020A2
:1043A00070BD10B501460020002300228B8A0A8BC5
:1043B000120443EA020424F07F4010BD0CB502460B
:1043C000002000230193009300920B0F019321F032
:1043D0007F41019B1BB1009B1433009303E0090C48
:1043E000009B18330093009B1B680B400BB101200E
:1043F00000E000200CBD002221F07F42D3438382E5
:10440000704730B5024600200023948801F0E06533
:1044100004EA154321F07F41948A0C4054B14BB11A
:10442000012008E00054004000127A0040420F00D2
:10443000A0860100002030BD002221F07F42D3433E
:10444000838270472DE9F04705460C4616461F4605
:10445000DDF820904FF000081CB1012C01DBF72C97
:1044600002DD4FF0020859E0AA48047015B1012D91
:1044700042D120E0A848A9490860A948A949086094
:10448000A948AA490860AA48AA4908600020AA4980
:104490000860AA48AA490860AA48AB490860AB4826
:1044A000AB4908604B463A4631469A48007800F0DE
:1044B000FFFE804623E0A74898490860A64899492E
:1044C0000860A64899490860A5489A4908600020F4
:1044D00099490860A3489A490860A3489A49086026
:1044E000A2489B4908604B463A46314689480078C5
:1044F00000F04EF9804602E04FF0020800BF00BF16
:10450000B8F1000F0AD101F085F810B94FF0030897
:1045100004E0974805700120964908704046BDE8C0
:10452000F08730B502460B46002A36DD7F2A34DCA0
:10453000F3B1002112E0904C04EBC10464682CB18B
:104540008D4C04EBC10464689C4206D18A4C04F88B
:10455000312004EBC104636002E0491C1029EADB4E
:1045600000BF102901D0002400E00424204615E0FB
:1045700000210DE0804C14F83140944207D1002412
:104580007D4D05F8314005EBC1056C6002E0491C2A
:104590001029EFDB00BF002000E0022030BD10B585
:1045A000002474480078012806D16348006820B1CF
:1045B00061480068804700E00624204610BD10B521
:1045C00000246C480078012806D1544800688047D0
:1045D00000206849087000E00624204610BD10B590
:1045E0006448007838B94F48006880470120614925
:1045F0000870002406E05F480078012801D10024FB
:1046000000E00624204610BD38B500255948007842
:1046100008B1062038BD684601F009F8012877D1B5
:104620009DF8000030B1012805D0022818D00328D9
:104630006DD16BE06BE0514A514952483D4B1B68CC
:10464000984705465DB94F48007832490978884255
:1046500002D04C48007810B9022000F0E0FF56E08C
:1046600047480068007848490870012047490870A9
:10467000002417E0404810F8340000B914E03E4828
:1046800010F834004049097888420AD13A4800EBD2
:10469000C4003A4942683A48006890473B4908706C
:1046A00002E0641C102CE5DB00BF3648007858B3EC
:1046B00036480078C8B10020304908803248007878
:1046C00040F080012D4802880088401C2B4B188048
:1046D0002B48006881542D480278184601880088CC
:1046E000401C188026480068425421480078012860
:1046F00000D100BF214802882148016805480078A0
:104700000A4B1B689847054601E001E000BF00BF67
:1047100000207FE75C0C0020FD520008640C0020A4
:1047200013530008680C00207D530008600C002023
:10473000235300086C0C0020700C00200F5400085C
:10474000740C00209B540008780C00200F550008C2
:104750007C0C0020CD470008E34700086B480008A8
:1047600013480008F7480008494A0008394B000878
:104770005D0C00205E0C0020880C00200E0D002037
:10478000080D00200C0D00200D0D0020100D002044
:104790002DE9F04180460C4615461E4600270A20AA
:1047A000F6490870334607222946204600F07AFF72
:1047B000012801D0032706E044F6206001F016F836
:1047C000012800D003273846BDE8F08110B500214C
:1047D000012000F03DFF0020E949087000F01FFFB4
:1047E00010BD10B50021084600F032FF01F054F86A
:1047F00010BD10B50246002003E012F8014B23184B
:10480000D8B20B00A1F10104A1B2F6D14342D8B253
:1048100010BD2DE9F04104460D4616460027D94843
:104820000088FF2800DC04E09D22D7A1E0A001F071
:104830005FF8D4480088032813DBD2480188E64893
:104840000068FFF7D6FF60B9E34800680078207081
:10485000CC480088801E3080DF480068401C2860FB
:1048600000E005273846BDE8F0812DE9F041044617
:104870000D4616464FF00008C148007818BB681E68
:10488000D64908600120D6490880D44800680470E1
:10489000084600883044088008460188CF480068F0
:1048A000FFF7A7FF0746CE490888411CCC4A118074
:1048B000C94909680F540120CA4908700121002024
:1048C00000F0C6FE01E04FF005084046BDE8F0816B
:1048D0000146302905DB392903DCA1F13000C0B2E3
:1048E0007047412905DB462903DCA1F13700C0B23E
:1048F000F6E7FF20F4E738B50025BA48007800B99C
:1049000004E0E422A0A1B8A000F0F2FF684600F0A5
:1049100034FF9B48007800286ED0012802D002287E
:1049200079D146E000F0A5FF9DF800003A2805D1B6
:104930000020B44908709349088039E09DF80000D0
:104940000D2803D102208E49087031E09DF8000047
:10495000FFF7BEFF0446AB48007810B1012826D10E
:1049600014E088480088FF280ADC2007000E9A49D6
:104970000968844A128888540120A249087016E008
:1049800000207F49087000F087FF10E09249096815
:104990007C4A128888180178214301707948008880
:1049A000401C7849088000209649087000BF00BF6D
:1049B00031E09DF8000071490978884209D100F082
:1049C0006BFF00206E490870012000F028FE0546AC
:1049D00011E09DF800003A280AD1002089490870AA
:1049E0006849088001206649087000F042FF02E033
:1049F0000020634908700EE09DF800003A2809D1B4
:104A000000F037FF00205F4908807E4908700120D0
:104A10005B49087000BF00BF284638BD10B504468A
:104A2000092C03DC04F13000C0B210BD0A2C05DBF8
:104A30000F2C03DC04F13700C0B2F6E740F2D112CC
:104A400051A171A000F054FF70B500254C480078CA
:104A500000B905E04FF4A8724BA16CA000F048FF2C
:104A600060480078052864D2DFE800F05E030E4756
:104A70004F003A24204600F078FE02205949087081
:104A800000206049087054E05548008800282DDD5A
:104A90005C48007810B1012827D10DE04F49096822
:104AA00009780811FFF7BAFF0446204600F05DFEC2
:104AB00001205449087018E048490968097801F054
:104AC0000F00FFF7ABFF0446204600F04EFE4348C0
:104AD0000068401C4149086000204A49087040486D
:104AE0000088401E3E49088000BF05E00D2000F010
:104AF0003CFE03203B4908701BE02048007800F092
:104B000034FE04203749087013E00020354908704E
:104B1000032000F084FD05460021012000F098FDEF
:104B200000203049087004E00021012000F090FDD1
:104B300000BF00BF284670BD10B51148007801289D
:104B400002D0022805D100E000BF00200C49087007
:104B50000FE00B480078012803D0094800780228AC
:104B600000D105E04FF4D47207A12F4800F0C0FE39
:104B700000BF00BF00F090FE002010BD270D0020F8
:104B8000150D00201C0D00202E2E5C467265654D13
:104B90006F646275735C6D6F646275735C6173637F
:104BA00069695C6D6261736369692E63000000006E
:104BB0007573526376427566666572506F73203CFA
:104BC000204D425F5345525F5044555F53495A450B
:104BD0005F4D415800000000180D0020200D0020FE
:104BE000240D0020140D002065536E64537461740D
:104BF00065203D3D2053544154455F54585F49441E
:104C00004C4500001E0D0020300000006552637608
:104C10005374617465203D3D2053544154455F52A7
:104C2000585F49444C450000946500082DE9F05F49
:104C300006460D464FF0000B2888052844D17078B1
:104C40004FEA002AB07840EA0A0AF0780402307984
:104C50000443012C35DBB4F5FA6F32DA3746002015
:104C60002880012007F8010B2888401C288004F0C8
:104C7000070040B12046E11704EB5171C910491CEF
:104C800001F0FF0805E02046E11704EB5171C1F384
:104C9000C70807F8018B2888401C2880002322467B
:104CA00051463846FBF720FB8146B9F1000F04D08E
:104CB000484600F0B2FA834608E02888404428803D
:104CC00004E04FF0030B01E04FF0030B5846BDE842
:104CD000F09F2DE9F84304460E464FF00008308857
:104CE000052827D160780702A07807432079F0B91A
:104CF000E078FF2801D0E078C8B900208DF80100E5
:104D0000E078FF2803D101208DF8000002E00020A8
:104D10008DF8000001231A4639466846FBF7E4FA8D
:104D200005464DB1284600F078FA804604E04FF081
:104D3000030801E04FF003084046BDE8F8832DE981
:104D4000F05F05460E464FF0000B3088052838DD31
:104D500068784FEA0029A87840EA0909E87804024F
:104D60002879044395F805A004F0070038B12046DF
:104D7000E11704EB5171C910491CCFB205E0204680
:104D8000E11704EB5171C1F3C707012C16DBB4F531
:104D9000F66F13DC574511D1012322464946A81D61
:104DA000FBF7A2FA8046B8F1000F04D0404600F0AD
:104DB00034FA834607E00520308004E04FF0030B0F
:104DC00001E04FF0030B5846BDE8F09F2DE9F05F7E
:104DD00006460D464FF0000B2888052843D1707811
:104DE0004FEA002AB07840EA0A0AF07804023079E3
:104DF0000443012C34DBB4F5FA6F31DA3746002076
:104E00002880022007F8010B2888401C288004F025
:104E1000070040B12046E11704EB5171C910491C4D
:104E200001F0FF0805E02046E11704EB5171C1F3E2
:104E3000C70807F8018B2888401C28802246514665
:104E40003846FBF79AFA8146B9F1000F04D048467C
:104E500000F0E3F9834608E028884044288004E015
:104E60004FF0030B01E04FF0030B5846BDE8F09FF5
:104E70002DE9F04104460E464FF000083088052821
:104E800010D160780702A078074301231A463946FB
:104E9000E01CFBF7EBF9054635B1284600F0BDF9FB
:104EA000804601E04FF003084046BDE8F0812DE95F
:104EB000F04704460E464FF0000A3088062826DBED
:104EC00060784FEA0028A07840EA0808E0780502F8
:104ED0002079054394F80590012D15DB782D13DC1E
:104EE0006806000E48450FD101232A464146A01D01
:104EF000FBF7BCF9074627B1384600F08EF9824629
:104F000007E00520308004E04FF0030A01E04FF095
:104F1000030A5046BDE8F0872DE9F04705460C46E8
:104F20004FF0000A2088052833D168784FEA00291D
:104F3000A87840EA0909E87806022E79012E25DBD7
:104F40007D2E23DC2F4600202080032007F8010B54
:104F50002088401C20807006000E07F8010B208876
:104F6000401C20800023324649463846FBF77EF934
:104F70008046B8F1000F04D0404600F04EF982465A
:104F800009E0208800EB4600208004E04FF0030A8F
:104F900001E04FF0030A5046BDE8F0872DE9FC5FC1
:104FA00004460D460020009028880A285DDB6078C2
:104FB0004FEA002AA07840EA0A0A0AF101001FFA23
:104FC00080FAE07806022079064360794FEA002BE8
:104FD000A07940EA0B0B0BF101001FFA80FBE0798E
:104FE0000702207A0743607A0190012E3BDB7D2E79
:104FF00039DC012F37DB792F35DC790001988142CC
:1050000031D101233A46594604F10A00FBF72EF943
:105010008146B9F1000F1ED1A0460020288017203C
:1050200008F8010B2888401C28807006000E08F83C
:10503000010B2888401C28800023324651464046F8
:10504000FBF714F98146B9F1000F04D12888022139
:1050500001FB06002880B9F1000F06D0484600F099
:10506000DCF8009001E0032000900098BDE8FC9F70
:105070002DE9F04705460C464FF0000A2088052828
:1050800033D168784FEA0029A87840EA0909E8781E
:10509000060228790643012E24DB7D2E22DA2F46D4
:1050A00000202080042007F8010B2088401C20806D
:1050B0007006000E07F8010B2088401C2080324645
:1050C00049463846FBF7B0F88046B8F1000F04D0E7
:1050D000404600F0A2F8824609E0208800EB460036
:1050E000208004E04FF0030A01E04FF0030A50462D
:1050F000BDE8F0872DE9F04105460E4617461C46EF
:105100004FF00008A01C202826DA00201C49088047
:10511000084601880088401C194A108019484554E7
:105120000EB1FF2200E00022154801880088401CD3
:10513000134B188013484254002C0FDD01461A46C9
:10514000128888182246394600F010FC0C48008866
:1051500020440B49088001E04FF004084046BDE8B8
:10516000F08170B505460C46054802880549681C63
:1051700000F0FCFB02480088401C2080002070BD2D
:10518000280D0020E80D00202DE9FF5F05460E46A2
:105190009046DDF80CB0B8F1080F00DC04E03822CE
:1051A00026A131A000F0A4FBF408A6EBC4001FFA6E
:1051B00080FA0BFA0AF01FFA80FB012000FA08F0CF
:1051C000401E1FFA80F9A6EBC40009FA00F01FFA8E
:1051D00080F92F5D601C285C47EA002727EA090058
:1051E00040EA0B072F553912601C2954BDE8FF9F78
:1051F000F0B503460C461546E208A4EBC20087B2A0
:105200000120A840401E86B2995C501C185C41EAFF
:10521000002139413140C8B2F0BD014621B1012918
:1052200004D0072906D103E0002005E0022003E0B6
:10523000062001E0042000BF00BF70472E2E5C4610
:105240007265654D6F646275735C6D6F64627573D2
:105250005C66756E6374696F6E735C6D627574699C
:105260006C732E630000000075634E4269747320F6
:105270003C3D20380000000070B502460C46FF257A
:10528000FF2309E012F8010B80EA03010648405CA5
:1052900080EA05030548455C2000A4F10106B4B28C
:1052A000F0D143EA052070BD9263000892640008C3
:1052B0002DE9F04781460E4614461F464FF0000880
:1052C0003B4608222146304600F0ECF9012802D086
:1052D0004FF003080FE0B4F5964F01D9232503E002
:1052E0006000A349B1FBF0F5A8B200F07FFA0128F5
:1052F00001D04FF003084046BDE8F08710B500200C
:105300009C4908700021012000F0A2F900F0B1FAD8
:1053100010BD10B50021084600F09AF900F0BCFA63
:1053200010BD2DE9F04104460D4616464FF0000829
:10533000002791480088FF2800DC04E0A7228FA105
:1053400097A000F0D5FA8C480088042812DB8A4820
:1053500001889D48FFF790FF60B99B480078207056
:1053600085480088C01E30809748401C28604FF058
:10537000010800E005273846BDE8F0812DE9F0413D
:1053800005460E4617464FF000087A480078012877
:1053900038D1701E8D49086001208D4908808B48E6
:1053A000006805700846008838440880084601886F
:1053B00086480068FFF760FF044685490888411C5D
:1053C000834B198080490C54221219460888411CCD
:1053D00019807D490A5401207E4908707B4909687B
:1053E000087800F0C2F979480068401C77490860E5
:1053F00077480088401E764908800121002000F08F
:1054000027F901E04FF005084046BDE8F08138B5C6
:1054100000247048007800B904E0F92257A16EA07A
:1054200000F066FA684600F0A8F95248007830B1FA
:1054300001280AD0022819D003282BD102E000F05D
:1054400018FA27E000F015FA24E000204A49088005
:105450009DF800200888411C474B19805A490A547E
:1054600002204449087000F004FA13E04248008822
:10547000FF2809DC9DF800203F490888411C3E4B6D
:10548000198051490A5402E003203A49087000F09B
:10549000F0F900BF00BF204638BD10B500243548E4
:1054A0000078012800D105E040F2391233A151A063
:1054B00000F01EFA4748007810B1012824D104E01A
:1054C0000021012000F0C4F81EE04148008878B1B6
:1054D0003E490968087800F048F93C480068401CDB
:1054E0003A4908603A480088401E394908800AE075
:1054F000032000F094F804460021012000F0A8F8F1
:1055000000203449087000BF00BF204610BD10B510
:1055100000241848007820B1022807D003280BD1B6
:1055200009E0002000F07BF8044618E0012000F0BC
:1055300076F8044613E012E00E48007838B10D48C2
:105540000078022803D00B480078032800D105E03A
:1055500040F27B1209A12E4800F0CAF900BF00BF3B
:1055600000F09AF9012003490870204610BD0000A0
:10557000A07F17002D0D0020360D00202E2E5C463A
:105580007265654D6F646275735C6D6F646275738F
:105590005C7274755C6D627274752E63000000003D
:1055A0007573526376427566666572506F73203C00
:1055B000204D425F5345525F5044555F53495A4511
:1055C0005F4D415800000000080E0020300D002003
:1055D000340D00202C0D002065536E6453746174EB
:1055E00065203D3D2053544154455F54585F494424
:1055F0004C450000655263765374617465203D3DEF
:105600002053544154455F52585F49444C45000073
:10561000D865000800200C49087001207047014639
:105620000120094A107009480170012070470146A5
:105630000020054A127832B1044A12780A7000221A
:10564000014B1A7001207047390D0020380D0020E1
:1056500070B505460C465DB1012240F225515F4808
:10566000FEF705F84FF480515D48FCF7A6FD0AE00F
:10567000002240F225515948FDF7F9FF4FF48051BF
:105680005748FCF798FD34B1012240F22661534897
:10569000FDF7EDFF05E0002240F226614F48FDF7DF
:1056A000E6FF70BDF0B587B005460C4616461F46AE
:1056B000012144F20400FCF78DFF4FF40070ADF8B7
:1056C000180003208DF81A0018208DF81B0006A979
:1056D0004348FCF7C3FC4FF48060ADF8180003208A
:1056E0008DF81A0004208DF81B0006A93C48FCF731
:1056F000B5FC02940020ADF80C00ADF80E00ADF83A
:105700001000ADF814000C20ADF8120002A93348C7
:10571000FDF715FF01213148FDF79DFF4FF4C060F3
:10572000FEF7CEF825208DF8040000208DF8050046
:1057300001208DF806008DF8070001A8FEF7C5F8D6
:1057400001210420FCF746FF4FF48050ADF818000B
:1057500003208DF81A0010208DF81B0006A92048A0
:10576000FCF77CFC012007B0F0BD10B504462146D3
:105770001A48FDF7DDFF012010BD10B5044617489B
:10578000FDF7DAFF2070012010BD10B51548006844
:10579000804710BD10B514480068804710BD10B593
:1057A00040F225510D48FEF747F8012806D1FFF7D2
:1057B000F1FF40F225510948FEF768F840F22661F2
:1057C0000648FEF739F8012806D1FFF7DEFF40F260
:1057D00026610248FEF75AF810BD0000003801406B
:1057E00000080140780C0020740C00207FB50446AE
:1057F000002501210420FCF7FAFE3A48006844F62F
:105800002061B0FBF1F0401E85B2ADF80840ADF864
:1058100004500020ADF80A00ADF8060001A9324896
:10582000FDF710F801213048FDF768FC4FF4C06027
:10583000FEF746F81E208DF8000000208DF80100CC
:1058400002208DF8020001208DF803006846FEF763
:105850003CF801212448FDF72BFE002201212248BB
:10586000FDF767FB00212048FDF748FB012004B04D
:1058700070BD10B501211C48FDF71AFE012211462A
:105880001948FDF756FB00211748FDF7CBFD012114
:105890001548FDF733FB10BD10B501211248FDF787
:1058A00007FE002201211048FDF743FB00210E48AE
:1058B000FDF7B8FD00210C48FDF720FB10BD10B529
:1058C0000A480068804710BD10B501210648FDF761
:1058D000DEFD28B101210448FDF7EAFDFFF7EFFFE7
:1058E00010BD000018000020000800407C0C0020C3
:1058F0000EB5054614460E4612A000F087F828465D
:1059000000F084F815A000F081F8304600F07EF831
:1059100014A000F07BF800218DF80B100A210DF186
:105920000A008DF80A1007E0224694FBF1F401FB0F
:105930001422303200F8012D002CF5DC00F066F85E
:1059400000F05CF82A2A2A20617373657274696F0B
:105950006E206661696C65643A2000002C206669DF
:105960006C6520002C206C696E652000032A40F2D3
:10597000308010F0030C00F0158011F8013BBCF1F1
:10598000020F624498BF11F801CB00F8013B38BF09
:1059900011F8013BA2F1040298BF00F801CB38BF17
:1059A00000F8013B11F0030300F03A80083AC0F020
:1059B000088051F8043B083A51F804CBA0E80810DD
:1059C000F5E7121D5CBF51F8043B40F8043BAFF310
:1059D0000080D20724BF11F8013B11F801CB48BF6A
:1059E00011F8012B24BF00F8013B00F801CB48BFA0
:1059F00000F8012B7047704770477047002000F097
:105A00004FF8FAF7D3FB012000F044F810B5044634
:105A100002E0641C00F036F820780028F9D110BDAF
:105A200010B5203AC0F00B80B1E81850203AA0E839
:105A30001850B1E81850A0E81850BFF4F5AF5FEA6D
:105A4000027C24BFB1E81850A0E8185044BF18C920
:105A500018C0BDE810405FEA827C24BF51F8043BC7
:105A600040F8043B08BF7047D20728BF31F8023B1B
:105A700048BF11F8012B28BF20F8023B48BF00F8AF
:105A8000012B704708B569468DF800000320ABBEB6
:105A900008BD000001491820ABBEFEE72600020049
:105AA00010B500F035F8BDE8104000F02CB8704794
:105AB000754600F045F8AE4605006946534620F0AD
:105AC0000700854618B020B5FCF756FABDE820401F
:105AD0004FF000064FF000074FF000084FF0000BAA
